:020000040000FA
:0400000027EF00F0F6
:100008004D82FACF0EF0FBCF0FF0D9CF10F0DACF38
:1000180011F0F2AA12EF00F014EF00F01DEF00F05B
:10002800F2A419EF00F01BEF00F01DEF00F028EC30
:1000380015F011C0DAFF10C0D9FF0FC0FBFF0EC0CA
:10004800FAFF4D921100DCEF13F0000E0001C66FAD
:10005800000EC76F000EC86F000EC96F000EBA6F92
:10006800300EB86FB2EC15F08A88000E136E000ED1
:10007800126EEAEC15F0F294F2A445EF00F047EFA7
:1000880000F040EF00F0220E126E1F0E136EEFEC20
:1000980015F0F28EF28CC00E0001A16FFF0EA26F58
:1000A8005AEC15F05E0E0001A16FFF0EA26F5AEC1C
:1000B80015F0CB0E0001A16FFF0EA26F5AEC15F0E0
:1000C800B00E0001A16FFD0EA26F5AEC15F00FECF7
:1000D80016F0000E1DEC12F0D7EC15F00009D8B49C
:1000E80078EF00F07AEF00F070EF00F06EEC15F0AA
:1000F8000001BB6FB2EF04F0C60EA16FFC0EA26F39
:100108005AEC15F04B0E0001A16FFF0EA26F5AECCE
:1001180015F0EE0E0001A16FFF0EA26FC8C0A3F08C
:10012800C9C0A4F0A56BA66B5AEC15F0FC0E000133
:10013800A16FFF0EA26F5AEC15F0EE0E0001A16F31
:10014800FF0EA26FFF0EC615A36FFF0EC715A46F93
:10015800000EC815A56F000EC915A66F5AEC15F04C
:10016800AE0E0001A16FFF0EA26F5AEC15F0C80E7B
:100178000001A16FFC0EA26F5AEC15F0B10E000140
:10018800A16FFF0EA26F5AEC15F0DC0E0001A16FF3
:10019800FF0EA26F5AEC15F00E0E0001A16FFF0EB4
:1001A800A26F5AEC15F0DF0E0001A16FFE0EA26FD0
:1001B8005AEC15F0C80E0001A16FFC0EA26F5AECA4
:1001C80015F0C70E0001A16FFE0EA26F5AEC15F0D4
:1001D800C80E0001A16FFC0EA26F5AEC15F0DA0EE2
:1001E8000001A16FFD0EA26F5AEC15F0850E0001FB
:1001F800A16FFD0EA26F020EA46F000EA36F5AEC42
:1002080015F08F0E0001A16FFC0EA26F020EA46FF5
:10021800000EA36F5AEC15F0C80E0001A16FFC0E7A
:10022800A26F5AEC15F0FC0E0001A16FFC0EA26F34
:10023800020EA46F000EA36F5AEC15F02E0E0001EB
:10024800A16FFD0EA26F020EA46F000EA36F5AECF1
:1002580015F0FF0E0001A16FFD0EA26F020EA46F34
:10026800000EA36F5AEC15F0C80E0001A16FFC0E2A
:10027800A26F5AEC15F070EF00F0D40EA16FFF0ECC
:10028800A26F5AEC15F070EF00F0000EC56F000E6B
:10029800C46FF50EA16FFF0EA26F5AEC15F00001A6
:1002A800C44BC52BC55109E1280EC45DD8A05FEF2A
:1002B80001F061EF01F04DEF01F0FF0070EF00F089
:1002C800000EC56F000EC46FF50EA16FFF0EA26F72
:1002D8005AEC15F00001C44BC52BC55109E1280E95
:1002E800C45DD8A07AEF01F07CEF01F068EF01F06F
:1002F80070EF00F00FEC16F0000E1DEC12F0010E7E
:1003080023EC0EF070EF00F0610EBB19D8A48FEF4C
:1003180001F091EF01F0BBEF01F0000EC65F020E95
:10032800C75B000EC85B000EC95B040EC95DD8A090
:10033800A0EF01F0A2EF01F0B3EF01F01F0EA16FE3
:10034800FE0EA26F5AEC15F0000E0001C66FFE0EED
:10035800C76FFF0EC86F030EC96FE3EF01F0230EDE
:10036800A16FFF0EA26F5AEC15F0E3EF01F0000E3B
:10037800C627020EC723000EC823000EC923040E89
:10038800C95DD8A0CAEF01F0CCEF01F0DDEF01F0B4
:10039800760EA16FFE0EA26F5AEC15F0000E00014A
:1003A800C66F000EC76F000EC86F000EC96FE3EF6F
:1003B80001F0370EA16FFF0EA26F5AEC15F04B0E2D
:1003C8000001A16FFF0EA26F5AEC15F0EE0E0001AE
:1003D800A16FFF0EA26FC8C0A3F0C9C0A4F0A56B9F
:1003E800A66B5AEC15F0FC0E0001A16FFF0EA26F70
:1003F8005AEC15F0EE0E0001A16FFF0EA26FFF0E72
:10040800C615A36FFF0EC715A46F000EC815A56FFC
:10041800000EC915A66F5AEC15F0AE0E0001A16FBB
:10042800FF0EA26F5AEC15F070EF00F0000EC56FCA
:10043800000EC46FF40EC425D96E020EC521DA6E03
:10044800C451FF0ADF6EC44BC52B020EC55DD8A090
:1004580030EF02F032EF02F01EEF02F08B88C6C0D8
:1004680013F0C7C014F0C8C015F0C9C016F0F40ED8
:10047800176E020E186E0BEC13F082EC14F00001EC
:10048800B96FB929D8B44BEF02F04DEF02F041EF44
:1004980002F08B985A0EA16FFD0EA26F5AEC15F060
:1004A800810E0001A16FFF0EA26F5AEC15F0EE0E3F
:1004B8000001A16FFF0EA26FC8C0A3F0C9C0A4F0CD
:1004C800A56BA66B5AEC15F0FC0E0001A16FFF0E90
:1004D800A26F5AEC15F0EE0E0001A16FFF0EA26F8D
:1004E800FF0EC615A36FFF0EC715A46F000EC81523
:1004F800A56F000EC915A66F5AEC15F0AE0E0001D7
:10050800A16FFF0EA26F5AEC15F0F70E0001A16F54
:10051800FE0EA26FB9C0A3F0A46B5AEC15F070EFF1
:1005280000F08B8AC6C013F0C7C014F0C8C015F01D
:10053800C9C016F0F40E176E020E186E73EC12F0A6
:100548008B9AA20E0001A16FFF0EA26F5AEC15F054
:10055800810E0001A16FFF0EA26F5AEC15F0EE0E8E
:100568000001A16FFF0EA26FC8C0A3F0C9C0A4F01C
:10057800A56BA66B5AEC15F0FC0E0001A16FFF0EDF
:10058800A26F5AEC15F0EE0E0001A16FFF0EA26FDC
:10059800FF0EC615A36FFF0EC715A46F000EC81572
:1005A800A56F000EC915A66F5AEC15F0AE0E000126
:1005B800A16FFF0EA26F5AEC15F0F40E0001AB6F9D
:1005C800020EAC6F9CEC0BF070EF00F0000EBA6FEF
:1005D800C6C0C0F0C7C0C1F0C8C0C2F0C9C0C3F02F
:1005E800E90EA16FFB0EA26F5AEC15F04FEF03F066
:1005F800000E0001BF6F000EBE6F3D0EBA25F66EED
:10060800F76AF90EF722F86A000EF822F40EBE25F2
:10061800D96E020EBF21DA6E0800F5CFDFFF010E9A
:10062800BA25126E136A000E1322000E156E1A0EEA
:10063800146EC5EC11F012500001BA6FBE4BBF2BFF
:10064800020EBF5DD8A02BEF03F02DEF03F001EFF2
:1006580003F0C0C013F0C1C014F0C2C015F0C3C08D
:1006680016F0F40E176E020E186E0BEC13F082ECF7
:1006780014F00001B96FB929D8B445EF03F047EF7A
:1006880003F03BEF03F0000EC027020EC123000E5B
:10069800C223000EC323D7EC15F00009D8B457EFD6
:1006A80003F059EF03F0FCEF02F06EEC15F0920E38
:1006B8000001A16FFF0EA26F5AEC15F070EF00F069
:1006C800A00EF227000EF3233D0EA16FFE0EA26FBF
:1006D800F2C0B5F0F3C0B6F0040EB76FD890B633D9
:1006E800B533B72F72EF03F0B5C0A3F0B6C0A4F0CE
:1006F8005AEC15F070EF00F0A00EF25F000EF35BFD
:10070800400EF25D010EF359D8B08DEF03F08FEF74
:1007180003F093EF03F0010EF36F400EF26F3D0EFE
:10072800A16FFE0EA26FF2C0B5F0F3C0B6F0040ED2
:10073800B76FD890B633B533B72F9DEF03F0B5C078
:10074800A3F0B6C0A4F05AEC15F070EF00F0420E1A
:10075800A16FFC0EA26F5AEC15F0C6C0C0F0C7C05E
:10076800C1F0C8C0C2F0C9C0C3F0D7EC15F0000989
:10077800D8B4C1EF03F0C3EF03F0B9EF03F06EECA8
:1007880015F0010E4C6E26EF04F00001D105D8A437
:10079800D0EF03F0D2EF03F0F8EF03F08B88C0C07E
:1007A80013F0C1C014F0C2C015F0C3C016F0F40EA7
:1007B800176E020E186E0BEC13F082EC14F00001A9
:1007C800B96FB929D8B4EBEF03F0EDEF03F0E1EF1F
:1007D80003F08B98000EC027020EC123000EC2231F
:1007E800000EC323000ED16FD005D8A4FEEF03F08E
:1007F80000EF04F026EF04F08B88C0C013F0C1C0EE
:1008080014F0C2C015F0C3C016F0F40E176E000E37
:10081800186E0BEC13F082EC14F00001B96FB929D3
:10082800D8B419EF04F01BEF04F00FEF04F08B9825
:10083800000EC027020EC123000EC223000EC323E0
:10084800000ED06FD7EC15F00009D8B42EEF04F0E5
:1008580030EF04F0C9EF03F06EEC15F0000E4C6EAB
:1008680070EF00F05B0EA16FF90EA26F5AEC15F055
:10087800C6C0C0F0C7C0C1F0C8C0C2F0C9C0C3F08C
:1008880092EF04F0C0C013F0C1C014F0C2C015F05C
:10089800C3C016F0F40E176E020E186E73EC12F049
:1008A800000E0001BD6F000EBC6FBDBF63EF04F00A
:1008B800020EBD5DD8A063EF04F065EF04F067EFAA
:1008C80004F089EF04F0E90EA16FFF0EA26FF40E99
:1008D800BC25D96E020EBD21DA6EDF50B56FB55159
:1008E800A36FA46B5AEC15F0D7EC15F00009D8B437
:1008F80080EF04F082EF04F084EF04F089EF04F055
:100908000001BC4BBD2B59EF04F0000E0001C027BD
:10091800020EC123000EC223000EC323D7EC15F02C
:100928000009D8B49AEF04F09CEF04F046EF04F005
:100938006EEC15F0EA0E0001A16FFA0EA26F5AECE8
:1009480015F070EF00F0700EA16FFF0EA26FBBC024
:10095800A3F0A46B5AEC15F070EF00F0BB51B56F23
:10096800B66BB651000AD8B4BCEF04F0A7EF04F098
:10097800B5512B0AD8B464EF03F0060AD8B480EF57
:1009880003F01C0AD8B4EAEF02F00E0AD8B480EFDC
:1009980000F07E0AD8B488EF01F0160AD8B4ABEF9D
:1009A80003F00D0AD8B449EF01F03B0AD8B488EF38
:1009B80001F0080AD8B47EEF01F0060AD8B441EF76
:1009C80001F01D0AD8B495EF02F0010AD8B436EF49
:1009D80004F0040AD8B41AEF02F00D0AD8B464EF90
:1009E80001F0A7EF04F027EF00F07EC0D9FF7FC029
:1009F800DAFFDECFF6FFDDCFF7FFF86A0800F55023
:100A0800250AD8A40AEF05F00CEF05F09EEF07F0D1
:100A18007EC0D9FF7FC0DAFFDE2A000EDD22000E7D
:100A28003D6E000E3C6E3CC040F03DC041F03E685B
:100A38003F68000E00018F6F000E8E6F6BEF05F0A0
:100A480040807EC0D9FF7FC0DAFFDE2A000EDD229B
:100A58006BEF05F0408225EF05F0408425EF05F0A7
:100A6800408625EF05F0408825EF05F0000E8F6FD2
:100A7800010E8E6F6BEF05F07EC0D9FF7FC0DAFFE5
:100A8800DECFF6FFDDCFF7FFF86A0800F550826F7A
:100A9800836B8351000AD8B454EF05F03AEF05F0A0
:100AA8008251200AD8B434EF05F0030AD8B437EFDE
:100AB80005F0080AD8B431EF05F0060AD8B424EFD7
:100AC80005F01D0AD8B42EEF05F03AEF05F08E5167
:100AD8008F11D8B472EF05F074EF05F040EF05F010
:100AE80040A079EF05F07BEF05F07CEF05F0409230
:100AF8007EC0D9FF7FC0DAFFDECFF6FFDDCFF7FF7C
:100B0800F86A0800F5502A0AD8A48DEF05F08FEF8F
:100B180005F0B8EF05F07EC0D9FF7FC0DAFFDE2A06
:100B2800000EDD2280C0D9FF81C0DAFFDFCF82F05E
:100B3800020EDE26DFCF83F0000EDD2282C0D9FF51
:100B480083C0DAFFDECF3CF0DDCF3DF03DBEB1EF34
:100B580005F0AFEF05F0FDEF05F040803C6C3D1E61
:100B6800D8B03D2AFDEF05F07EC0D9FF7FC0DAFF7F
:100B7800DECF19F0DDCF1AF092EC0CF019C03CF082
:100B88001AC03DF0CFEF05F07EC0D9FF7FC0DAFF75
:100B9800DE2A000EDD22D00E0001826FFF0E836F69
:100BA8007EC0D9FF7FC0DAFFDECFF6FFDDCFF7FFCB
:100BB800F86A0800F550846F856B82518427835149
:100BC800852385510AE10A0E845DD8A0EEEF05F071
:100BD800F1EF05F0010EF2EF05F0000E906F916B4A
:100BE80090519111D8A4FBEF05F0FDEF05F0C8EF87
:100BF80005F07EC0D9FF7FC0DAFFDECFF6FFDDCF7C
:100C0800F7FFF86A0800F550630AD8A40EEF06F05B
:100C180010EF06F037EF06F07EC0D9FF7FC0DAFF8D
:100C2800DE2A000EDD2280C0D9FF81C0DAFFDFCFC7
:100C380082F0020EDE26DFCF83F0000EDD2282C0B6
:100C4800D9FF83C0DAFFDF509A6F7CC01DF07DC0EA
:100C58001EF09AC01FF092EC10F01DC07CF01EC070
:100C68007DF0BAEF07F07EC0D9FF7FC0DAFFDECF94
:100C7800F6FFDDCFF7FFF86A0800F550640AD8B42C
:100C880048EF06F04AEF06F05DEF06F07EC0D9FFA8
:100C98007FC0DAFFDECFF6FFDDCFF7FFF86A080086
:100CA800F550690AD8A45BEF06F05DEF06F09DEFFA
:100CB80006F07EC0D9FF7FC0DAFFDE2A000EDD22F3
:100CC80080C0D9FF81C0DAFFDFCF82F0020EDE26B6
:100CD800DFCF83F0000EDD2282C0D9FF83C0DAFFA8
:100CE800DECF86F0DDCF87F0000E87BFFF0E886F5E
:100CF800896F8A6F8B6F8C6F8D6F7CC02FF07DC072
:100D080030F086C031F087C032F088C033F089C037
:100D180034F08AC035F08BC036F08CC037F08DC007
:100D280038F0BBEC07F02FC07CF030C07DF0BAEF94
:100D380007F07EC0D9FF7FC0DAFFDECFF6FFDDCF38
:100D4800F7FFF86A0800F550750AD8A4AEEF06F068
:100D5800B0EF06F0F1EF06F07EC0D9FF7FC0DAFFF2
:100D6800DE2A000EDD2280C0D9FF81C0DAFFDFCF86
:100D780082F0020EDE26DFCF83F0000EDD2282C075
:100D8800D9FF83C0DAFFDECF84F0DDCF85F084C0E1
:100D980092F085C093F0946B956B966B976B986BFC
:100DA800996B7CC02FF07DC030F092C031F093C0B9
:100DB80032F094C033F095C034F096C035F097C047
:100DC80036F098C037F099C038F099EC0AF02FC087
:100DD8007CF030C07DF0BAEF07F07EC0D9FF7FC04D
:100DE800DAFFDECFF6FFDDCFF7FFF86A0800F5502F
:100DF800780AD8B402EF07F004EF07F017EF07F00E
:100E08007EC0D9FF7FC0DAFFDECFF6FFDDCFF7FF68
:100E1800F86A0800F550580AD8A415EF07F017EF3C
:100E280007F066EF07F07EC0D9FF7FC0DAFFDECF9C
:100E3800F6FFDDCFF7FFF86A0800F5CF9AF07EC01D
:100E4800D9FF7FC0DAFFDE2A000EDD2280C0D9FF7D
:100E580081C0DAFFDFCF82F0020EDE26DFCF83F01B
:100E6800000EDD2282C0D9FF83C0DAFFDECF84F016
:100E7800DDCF85F084C092F085C093F0946B956BBC
:100E8800966B976B986B996B7CC02FF07DC030F098
:100E980092C031F093C032F094C033F095C034F072
:100EA80096C035F097C036F098C037F099C038F042
:100EB8009AC039F02CEC09F02FC07CF030C07DF0DE
:100EC800BAEF07F07EC0D9FF7FC0DAFFDECFF6FFAA
:100ED800DDCFF7FFF86A0800F550250AD8A477EFA8
:100EE80007F079EF07F091EF07F07EC0D9FF7FC0D8
:100EF800DAFFDE2A000EDD22000E156E250E146EB6
:100F08007CC016F07DC017F0C0EC12F0000E000196
:100F18007D6F010E7C6FBAEF07F07EC0D9FF7FC0EE
:100F2800DAFFDE2A000EDD22000E7D6F000E7C6FD8
:100F3800BAEF07F07EC0D9FF7FC0DAFFDECFF6FF39
:100F4800DDCFF7FFF86A0800F550146E156A7CC00B
:100F580016F07DC017F0C0EC12F07EC0D9FF7FC03C
:100F6800DAFFDE2A000EDD228AEF07F0120031C018
:100F780070F032C071F033C072F034C073F035C015
:100F880074F036C075F037C076F038C077F00001DD
:100F980077BFD1EF07F0D4EF07F0010ED5EF07F0D8
:100FA800000E6E6F6F6B6E516F11D8B4DEEF07F0E5
:100FB800E0EF07F0F0EF07F0771F761F751F741F3B
:100FC800731F721F711F706D000E712372237323BC
:100FD80074237523762377233FBEF5EF07F0F7EFE9
:100FE80007F0F8EF07F040923FBE05EF08F03F50DA
:100FF80006E13E04D8B003EF08F005EF08F00BEF68
:1010080008F0000E6B6F010E6A6F0FEF08F03EC01C
:101018006AF03FC06BF03CC06CF03DC06DF06E51A3
:101028006F11D8A41AEF08F01CEF08F023EF08F0AE
:1010380040A421EF08F023EF08F026EF08F06C0732
:10104800D8A06D07000E796F1F0E786F000EF16F34
:10105800ABEF08F07807D8A07907D20E7825D96EBB
:10106800000E7921DA6E70C012F071C013F072C0F0
:1010780014F073C015F074C016F075C017F076C080
:1010880018F077C019F00A0E1A6E000E1B6E000ECB
:101098001C6E000E1D6E000E1E6E000E1F6E000EE2
:1010A800206E000E216EDFEC0EF012C060F013C04F
:1010B80061F014C062F015C063F016C064F017C088
:1010C80065F018C066F019C067F060C024F062C00F
:1010D80025F025EC14F02450300FDF6E00016A076C
:1010E800D8A06B076C07D8A06D0770C012F071C04C
:1010F80013F072C014F073C015F074C016F075C008
:1011080017F076C018F077C019F00A0E1A6E000EA4
:101118001B6E000E1C6E000E1D6E000E1E6E000E65
:101128001F6E000E206E000E216E5FEC0DF012C0D7
:1011380070F013C071F014C072F015C073F016C0CF
:1011480074F017C075F018C076F019C077F0000178
:1011580079BFB7EF08F0795108E17805D8A0B7EF63
:1011680008F0B9EF08F0E9EF08F070517111721149
:1011780073117411751176117711D8A4C6EF08F0A0
:10118800C8EF08F02EEF08F06BBFD5EF08F06B51F1
:1011980006E16A05D8B0D3EF08F0D5EF08F02EEFD6
:1011A80008F06DBFE0EF08F06D5108E16C05D8A0BC
:1011B800E0EF08F0E2EF08F0E9EF08F040B2E7EFFF
:1011C80008F0E9EF08F02EEF08F06E516F11D8A47F
:1011D800F0EF08F0F2EF08F0F9EF08F040A4F7EFAD
:1011E80008F0F9EF08F017EF09F07807D8A07907A9
:1011F8006E516F11D8A403EF09F005EF09F00BEF5A
:1012080009F0000E696F2B0E686F0FEF09F0000EE2
:10121800696F2D0E686FD20E7825D96E000E792170
:10122800DA6E68C0DFFF2FC024F030C025F0D20E80
:101238007825266E000E7921276E6CC028F06DC0C7
:1012480029F064EC11F024C02FF025C030F0120012
:101258003FBE31EF09F033EF09F034EF09F0409267
:101268003FBE41EF09F03F5006E13E04D8B03FEFE2
:1012780009F041EF09F048EF09F0000E00016D6F29
:10128800010E6C6F4CEF09F03EC06CF03FC06DF082
:101298003CC06EF03DC06FF040A855EF09F057EF25
:1012A80009F05CEF09F00001FE0E6E27FF0E6F23B8
:1012B80031C070F032C071F033C072F034C073F0D6
:1012C80035C074F036C075F037C076F038C077F0A6
:1012D800000E0001796F1F0E786F000EF16F29EF75
:1012E8000AF07807D8A079070F0E70157A6F7B6B14
:1012F8007BBF88EF09F07B5109E10A0E7A5DD8A01F
:1013080088EF09F08AEF09F092EF09F0570E7A2575
:101318007A6F000E7B217B6F98EF09F0300E7A25EB
:101328007A6F000E7B217B6FBF0E606FFF0E616FBF
:101338003950626F636B6051622761516323635157
:101348000AE11A0E625DD8A0ACEF09F0AFEF09F020
:10135800010EB0EF09F0000E686F696B68516911F2
:10136800D8B4B9EF09F0BBEF09F0EBEF09F09F0E25
:10137800606FFF0E616F200E7A11626F000E7B1195
:10138800636F605162276151632363510AE11A0E4A
:10139800625DD8A0D2EF09F0D5EF09F0010ED6EFC3
:1013A80009F0000E6A6F6B6B6A516B11D8B4DFEFEE
:1013B80009F0E1EF09F0EBEF09F07AC018F07BC013
:1013C80019F084EC13F018C07AF019C07BF0D20E33
:1013D80000017825D96E000E7921DA6E7AC0DFFF18
:1013E8006C07D8A06D076E07D8A06F0770C060F0B3
:1013F80071C061F072C062F073C063F074C064F0D1
:1014080075C065F076C066F077C067F0050E16EF18
:101418000AF0D890673366336533643363336233D5
:1014280061336033E82E0DEF0AF060C070F061C0E0
:1014380071F062C072F063C073F064C074F065C08C
:1014480075F066C076F067C077F079BF35EF0AF0BF
:10145800795109E1020E785DD8A035EF0AF037EF2F
:101468000AF067EF0AF0705171117211731174115B
:10147800751176117711D8A444EF0AF046EF0AF0F7
:1014880075EF09F06DBF53EF0AF06D5106E16C0579
:10149800D8B051EF0AF053EF0AF075EF09F06FBFBB
:1014A8005EEF0AF06F5108E16E05D8A05EEF0AF012
:1014B80060EF0AF067EF0AF040B265EF0AF067EFF5
:1014C8000AF075EF09F040A86CEF0AF06EEF0AF029
:1014D80084EF0AF07807D8A07907D20E7825D96E5C
:1014E800000E7921DA6E39C0DFFF7807D8A07907B6
:1014F800D20E7825D96E000E7921DA6E300EDF6EA5
:101508002FC024F030C025F0D20E7825266E000EAC
:101518007921276E6EC028F06FC029F064EC11F0B5
:1015280024C02FF025C030F012003FBE9EEF0AF015
:10153800A0EF0AF0A1EF0AF040923FBEAEEF0AF02A
:101548003F5006E13E04D8B0ACEF0AF0AEEF0AF027
:10155800B5EF0AF0000E0001696F010E686FB9EF70
:101568000AF03EC068F03FC069F03CC06AF03DC078
:101578006BF031C06CF032C06DF033C06EF034C027
:101588006FF035C070F036C071F037C072F038C0F7
:1015980073F0000E0001756F1F0E746F000EF16F6F
:1015A8004DEF0BF07407D8A07507D20E7425D96ECD
:1015B800000E7521DA6E6CC012F06DC013F06EC0AB
:1015C80014F06FC015F070C016F071C017F072C03B
:1015D80018F073C019F00A0E1A6E000E1B6E000E7A
:1015E8001C6E000E1D6E000E1E6E000E1F6E000E8D
:1015F800206E000E216EFCEC10F012C060F013C0DB
:1016080061F014C062F015C063F016C064F017C032
:1016180065F018C066F019C067F000016051300F1E
:10162800DF6E6807D8A069076A07D8A06B076CC087
:1016380012F06DC013F06EC014F06FC015F070C0DA
:1016480016F071C017F072C018F073C019F00A0EC6
:101658001A6E000E1B6E000E1C6E000E1D6E000E24
:101668001E6E000E1F6E000E206E000E216E1AEC0C
:1016780010F012C06CF013C06DF014C06EF015C0FD
:101688006FF016C070F017C071F018C072F019C072
:1016980073F0000174517511D8B455EF0BF057EF82
:1016A8000BF087EF0BF06C516D116E116F1170110B
:1016B800711172117311D8A464EF0BF066EF0BF07F
:1016C800D6EF0AF069BF73EF0BF0695106E16805C0
:1016D800D8B071EF0BF073EF0BF0D6EF0AF06BBFD9
:1016E8007EEF0BF06B5108E16A05D8A07EEF0BF096
:1016F80080EF0BF087EF0BF040B285EF0BF087EF30
:101708000BF0D6EF0AF02FC024F030C025F0D20E2F
:101718007425266E000E7521276E6AC028F06BC0EE
:1017280029F064EC11F024C02FF025C030F012002D
:10173800F30E0001A16FFF0EA26F5AEC15F0000E18
:101748000001B46F000EB36FB351B411D8B4AFEF4A
:101758000BF0B1EF0BF0C6EF0BF0070EB315AD6F42
:10176800000EB415AE6FAD51AE11D8A4BEEF0BF09C
:10177800C0EF0BF0C6EF0BF0900EA16FFF0EA26F3B
:101788005AEC15F00001B351B411D8B4CEEF0BF0F8
:10179800D0EF0BF029EF0CF00F0EB315AD6F000E64
:1017A800B415AE6FAD51AE11D8A4DDEF0BF0DFEF7D
:1017B8000BF029EF0CF08F0EA16FFF0EA26F5AEC01
:1017C80015F0F00E0001B325AF6FFF0EB421B06F16
:1017D80018EF0CF0AF51AB25D96EB051AC21DA6ED1
:1017E800200EDF60FAEF0BF0FCEF0BF004EF0CF0CB
:1017F800FA0EA16FFF0EA26F5AEC15F015EF0CF060
:10180800F70EA16FFF0EA26FAF51AB25D96EB05185
:10181800AC21DA6EDF50AD6FAD51A36FA46B5AECFB
:1018280015F00001AF4BB02BB351AF5DB451B059B7
:10183800D8A021EF0CF023EF0CF0EEEF0BF0AE0E7A
:10184800A16FFF0EA26F5AEC15F0E30E0001A16F15
:10185800FF0EA26FB351AB25D96EB451AC21DA6E2D
:10186800DF50AD6FAD51A36FA46B5AEC15F00001BA
:10187800B34BB42B020EB45DD8A045EF0CF047EF84
:101888000CF0A8EF0BF08E0EA16FFF0EA26F5AECB2
:1018980015F0F00E0001B325B16FFF0EB421B26F41
:1018A80080EF0CF0B151AB25D96EB251AC21DA6E94
:1018B800200EDF6062EF0CF064EF0CF06CEF0CF0C0
:1018C800FA0EA16FFF0EA26F5AEC15F07DEF0CF027
:1018D800F70EA16FFF0EA26FB151AB25D96EB251B1
:1018E800AC21DA6EDF50AD6FAD51A36FA46B5AEC2B
:1018F80015F00001B14BB22BB351B15DB451B259DF
:10190800D8A089EF0CF08BEF0CF056EF0CF0AE0E70
:10191800A16FFF0EA26F5AEC15F01200000E276E91
:10192800000E266E000E206E000E1F6E9EEF0CF04D
:10193800194A1A2A010E256E19C0F6FF1AC0F7FFB8
:10194800F86A0800F550200AD8B4ADEF0CF0AFEFF4
:101958000CF0CDEF0CF0F70E1B6EFF0E1C6E19C0CD
:10196800F6FF1AC0F7FFF86A0800F5501D6E1E6AE8
:101978001B501D261C501E221E5009E1050E1D5C21
:10198800D8A0C9EF0CF0CBEF0CF0CDEF0CF0000EA7
:10199800256E25C021F0226A21502210D8A4D7EF45
:1019A8000CF0D9EF0CF09CEF0CF0E3EF0CF0000E0C
:1019B800206E010E1F6E194A1A2A1AEF0DF019C06F
:1019C800F6FF1AC0F7FFF86A0800F5501B6E1C6A8C
:1019D8001C50000AD8B4F3EF0CF01AEF0DF01B50AE
:1019E8002B0AD8B4DFEF0CF0060AD8B4DBEF0CF002
:1019F8001AEF0DF026C012F027C013F0000E156E76
:101A08000A0E146E82EC15F019C0F6FF1AC0F7FF23
:101A1800F86A0800F550125E000E135A300E1224B0
:101A2800266E000E1320276EDFEF0CF0D00E1B6E13
:101A3800FF0E1C6E19C0F6FF1AC0F7FFF86A0800FF
:101A4800F5501D6E1E6A1B501D261C501E221E506E
:101A58000AE10A0E1D5CD8A034EF0DF037EF0DF047
:101A6800010E38EF0DF0000E236E246A2350241067
:101A7800D8A441EF0DF043EF0DF0FEEF0CF01F502E
:101A88002010D8A44AEF0DF04CEF0DF05AEF0DF0EE
:101A980026C01BF027C01CF01B1E1C1E1B4A1C2A3C
:101AA8001BC019F01CC01AF05EEF0DF026C019F02B
:101AB80027C01AF01200000E236E21BE68EF0DF049
:101AC80066EF0DF07AEF0DF0211E201E1F1E1E1E60
:101AD8001D1E1C1E1B1E1A6C000E1B221C221D2202
:101AE8001E221F2220222122010E236E19BE81EF01
:101AF8000DF07FEF0DF093EF0DF0191E181E171E55
:101B0800161E151E141E131E126C000E132214220C
:101B180015221622172218221922010E231A20EE46
:101B280024F0070EDE6AE806FDE21A501B101C10AE
:101B38001D101E101F1020102110D8B4A6EF0DF094
:101B4800A8EF0DF0FAEF0DF0010E226EB6EF0DF0D2
:101B5800D8901A361B361C361D361E361F362036D0
:101B68002136222A21AEBBEF0DF0BDEF0DF0ACEF10
:101B78000DF0D890243625362636273628362936CD
:101B88002A362B361A50125C1B5013581C50145806
:101B98001D5015581E5016581F50175820501858C9
:101BA80021501958D8A0DBEF0DF0DDEF0DF0EEEF66
:101BB8000DF01A50125E1B50135A1C50145A1D5027
:101BC800155A1E50165A1F50175A2050185A21508D
:101BD800195A2480D890213220321F321E321D32E9
:101BE8001C321B321A32222EBDEF0DF02350D8B40E
:101BF80000EF0EF002EF0EF012EF0EF02B1E2A1E71
:101C0800291E281E271E261E251E246C000E25228E
:101C180026222722282229222A222B2224C012F017
:101C280025C013F026C014F027C015F028C016F000
:101C380029C017F02AC018F02BC019F012000001B3
:101C4800AD6F000E0001AC6F000EAB6FFF0EBFEC66
:101C580015F00001AB4BAC2BACBF3CEF0EF0AC5118
:101C680009E10A0EAB5DD8A03CEF0EF03EEF0EF096
:101C78002AEF0EF08A98FF0EBFEC15F0400EBFEC6D
:101C880015F0000EBFEC15F0000EBFEC15F0000EBD
:101C9800BFEC15F0000EBFEC15F0950EBFEC15F07B
:101CA800FF0EBFEC15F0FF0EBFEC15F00001AE6F94
:101CB8008A88AD05D8A463EF0EF065EF0EF06EEFDD
:101CC8000EF0920EA16FFE0EA26FAEC0A3F0A46B31
:101CD8005AEC15F08A98FF0EBFEC15F0410EBFECD8
:101CE80015F0000EBFEC15F0000EBFEC15F0000E5D
:101CF800BFEC15F0000EBFEC15F0FF0EBFEC15F0B1
:101D0800FF0EBFEC15F0FF0EBFEC15F00001AE6F33
:101D18008A88AE51D8A493EF0EF095EF0EF06EEFCF
:101D28000EF0AD05D8A49BEF0EF09DEF0EF0A6EFD8
:101D38000EF0AD0EA16FFE0EA26FAEC0A3F0A46BA5
:101D48005AEC15F08A98FF0EBFEC15F0500EBFEC58
:101D580015F0000EBFEC15F0000EBFEC15F0020EEA
:101D6800BFEC15F0000EBFEC15F0FF0EBFEC15F040
:101D7800FF0EBFEC15F0FF0EBFEC15F00001AE6FC3
:101D88008A88AE29D8B4CBEF0EF0CDEF0EF0A6EFCF
:101D98000EF0AD05D8A4D3EF0EF0D5EF0EF0DEEFC0
:101DA8000EF05A0EA16FFE0EA26FAEC0A3F0A46B88
:101DB8005AEC15F01200000E236E19BEE8EF0EF073
:101DC800E6EF0EF0FAEF0EF0191E181E171E161E7B
:101DD800151E141E131E126C000E13221422152237
:101DE8001622172218221922010E236E21BE01EF96
:101DF8000FF0FFEF0EF011EF0FF0211E201E1F1E37
:101E08001E1E1D1E1C1E1B1E1A6C000E1B221C22D1
:101E18001D221E221F22202221221A501B101C10B4
:101E28001D101E101F1020102110D8B41EEF0FF027
:101E380020EF0FF068EF0FF0010E226E2EEF0FF07B
:101E4800D8901A361B361C361D361E361F362036DD
:101E58002136222A21AE33EF0FF035EF0FF024EFB1
:101E68000FF01A50125C1B5013581C5014581D5078
:101E780015581E5016581F501758205018582150E2
:101E88001958D8A04AEF0FF04CEF0FF05CEF0FF0A5
:101E98001A50125E1B50135A1C50145A1D50155AD2
:101EA8001E50165A1F50175A2050185A2150195AA6
:101EB800D890213220321F321E321D321C321B3282
:101EC8001A32222E35EF0FF02350D8B46EEF0FF0F0
:101ED80070EF0FF080EF0FF0191E181E171E161E58
:101EE800151E141E131E126C000E13221422152226
:101EF800162217221822192212C012F013C013F04A
:101F080014C014F015C015F016C016F017C017F05D
:101F180018C018F019C019F01200C4CF0DF0C28211
:101F2800F4EF0FF04C04D8A49CEF0FF09EEF0FF0E5
:101F38000DEF10F0010E4B6E000E456E000E446E54
:101F48000DEF10F0F40E4424D96E020E4520DA6E1F
:101F58000DC0DFFF444A452A020E455CD8A0B7EF02
:101F68000FF0B9EF0FF0C2EF0FF0010E0001D16FC3
:101F7800020E4B6E000E456E000E446E4C50D8A4F7
:101F8800C8EF0FF0CAEF0FF00DEF10F0000E4B6E18
:101F98000DEF10F0F40E4424D96E000E4520DA6ED1
:101FA8000DC0DFFF444A452A020E455CD8A0DFEF8A
:101FB8000FF0E1EF0FF0EAEF0FF0010E0001D06F24
:101FC800010E4B6E000E456E000E446E4C50D8A4A8
:101FD800F0EF0FF0F2EF0FF00DEF10F0CAEF0FF087
:101FE8004B500B6E0C6A0C50000AD8B4FEEF0FF081
:101FF8000DEF10F00B50000AD8B496EF0FF0010A5D
:10200800D8B4A6EF0FF0030AD8B4CEEF0FF00DEF57
:1020180010F095EC15F00001F251015C096EF351D6
:1020280002580A6E08EC16F0F294120020EE22F024
:10203800070EDE6AE806FDE21A501B101C101D1080
:102048001E101F1020102110D8B42DEF10F02FEF04
:1020580010F081EF10F0010E2A6E3DEF10F0D890CD
:102068001A361B361C361D361E361F3620362136CC
:102078002A2A21AE42EF10F044EF10F033EF10F0AF
:10208800D890223623362436253626362736283663
:1020980029361A50125C1B5013581C5014581D50E6
:1020A80015581E5016581F501758205018582150B0
:1020B8001958D8A062EF10F064EF10F075EF10F027
:1020C8001A50125E1B50135A1C50145A1D50155AA0
:1020D8001E50165A1F50175A2050185A2150195A74
:1020E8002280D890213220321F321E321D321C32FB
:1020F8001B321A322A2E44EF10F022C012F023C0ED
:1021080013F024C014F025C015F026C016F027C01F
:1021180017F028C018F029C019F012003C503D10E3
:10212800D8A499EF10F09BEF10F0A1EF10F03CC08D
:1021380023F03DC024F0A7EF10F0FF0E3C24236EDF
:10214800FF0E3D20246E40A0ACEF10F0AEEF10F073
:10215800B7EF10F01FC014F0156A1DC016F01EC0AE
:1021680017F0C0EC12F024BEBCEF10F0BEEF10F078
:10217800C0EF10F0C4EF10F0000E246E000E236EB6
:10218800000E226E000E216ED6EF10F0000E156EB6
:10219800200E146E1DC016F01EC017F0C0EC12F011
:1021A800214A222A2350215C2250800A206E245082
:1021B800800A2058D8A0E3EF10F0E5EF10F0CAEF3E
:1021C80010F040B0EAEF10F0ECEF10F0F5EF10F07F
:1021D8001FC014F0156A1DC016F01EC017F0C0EC21
:1021E80012F0010E21241D6E000E22201E6E120018
:1021F8001A501B101C101D101E101F10201021102B
:10220800D8B409EF11F00BEF11F053EF11F0010EF4
:10221800226E19EF11F0D8901A361B361C361D366F
:102228001E361F3620362136222A21AE1EEF11F027
:1022380020EF11F00FEF11F01A50125C1B501358D9
:102248001C5014581D5015581E5016581F5017581A
:102258002050185821501958D8A035EF11F037EFF1
:1022680011F047EF11F01A50125E1B50135A1C5010
:10227800145A1D50155A1E50165A1F50175A2050DE
:10228800185A2150195AD890213220321F321E3242
:102298001D321C321B321A32222E20EF11F012C0CE
:1022A80012F013C013F014C014F015C015F016C0C6
:1022B80016F017C017F018C018F019C019F012005E
:1022C80040A069EF11F06BEF11F075EF11F026C027
:1022D8001DF027C01EF024C01FF025C020F003EC1D
:1022E80014F029BE7AEF11F07CEF11F082EF11F0B3
:1022F80028C02DF029C02EF086EF11F0000E2E6EAA
:10230800000E2D6E000E2C6E000E2B6E98EF11F045
:10231800000E156E200E146E24C016F025C017F09E
:10232800C0EC12F02B4A2C2A2D502B5C2C50800A22
:102338002A6E2E50800A2A58D8A0A5EF11F0A7EFD0
:1023480011F08CEF11F040B0ACEF11F0AEEF11F0DE
:10235800B8EF11F026C01DF027C01EF024C01FF0F2
:1023680025C020F003EC14F026C012F027C013F0AB
:102378000DEC15F02D501224246E2E501320256ECE
:102388001200000E176E13BECEEF11F0CCEF11F055
:10239800D4EF11F0126C131ED8B0132A010E176E69
:1023A80015BEDBEF11F0D9EF11F0DFEF11F0146C6F
:1023B800151ED8B0152A14501510D8B4E6EF11F030
:1023C800E8EF11F00CEF12F0010E166EF0EF11F0BD
:1023D800D89014361536162A15AEF5EF11F0F7EF2A
:1023E80011F0ECEF11F01450125C15501358D8A0EE
:1023F80000EF12F002EF12F006EF12F01450125E26
:102408001550135AD89015321432162EF7EF11F0D2
:102418001750D8B412EF12F014EF12F018EF12F0B0
:10242800126C131ED8B0132A12C012F013C013F086
:102438001200136E6CBA23EF12F025EF12F072EF50
:1024480012F01350040D010EF326000EF422570E5D
:10245800F324F66EF90EF420F76EF86A000EF822EF
:102468000800F5CF6DFF1350040D570EF324F66ED8
:10247800F90EF420F76EF86A000EF8220800F5CF7E
:102488006CFF000E6B6E1350040D020EF326000E47
:10249800F422570EF324F66EF90EF420F76EF86A5C
:1024A800000EF8220800F5CF6EFF1350040D030E3E
:1024B800F326000EF422570EF324F66EF90EF420DC
:1024C800F76EF86A000EF8220800F5CF12F01246EF
:1024D80093501218FD0B1218936E6C8A12008A988A
:1024E800FF0EBFEC15F0510EBFEC15F01650BFEC07
:1024F80015F01550BFEC15F01450BFEC15F0135043
:10250800BFEC15F0FF0EBFEC15F0FF0EBFEC15F099
:10251800FF0AD8B492EF12F094EF12F089EF12F09C
:10252800FF0EBFEC15F0FF0AD8B49DEF12F09FEF35
:1025380012F094EF12F0000E1A6E000E196E195078
:102548001724D96E1A501820DA6EFF0EBFEC15F05A
:10255800DF6E194A1A2A020E1A5CD8A0B6EF12F0DA
:10256800B8EF12F0A3EF12F0FF0EBFEC15F0FF0E5C
:10257800BFEC15F08A88120016501710D8B4C7EFB0
:1025880012F0C9EF12F0D2EF12F016501710D8A4BB
:10259800D0EF12F0D2EF12F0D7EF12F0145003EC94
:1025A80016F00AEF13F020EE04F01650D926175053
:1025B800DA22DE50DE10D8B4E4EF12F0E6EF12F0C3
:1025C80001EF13F020EE04F01650D9261750DA2246
:1025D80010EE02F01650E1261750E222DE50E65CBB
:1025E800E650800A1C6EDE50800A1C58D8B0FFEFF7
:1025F80012F001EF13F00AEF13F020EE02F016507C
:10260800D9261750DA22DE2A000EDD2212008A9817
:10261800FF0EBFEC15F0580EBFEC15F01650BFECCE
:1026280015F01550BFEC15F01450BFEC15F0135011
:10263800BFEC15F0FF0EBFEC15F0FF0EBFEC15F068
:10264800FF0AD8B42AEF13F02CEF13F021EF13F0A0
:10265800FF0EBFEC15F0FF0EBFEC15F0FF0EBFEC40
:1026680015F0FE0EBFEC15F0000E1A6E000E196E76
:1026780019501724D96E1A501820DA6EDF50BFECA3
:1026880015F0194A1A2A020E1A5CD8A04EEF13F058
:1026980050EF13F03CEF13F08A8812009DC03AF017
:1026A8009EC03BF0000E0001CB6F000ECA6F70EFAA
:1026B80013F09BC07CF09CC07DF03A0E7E6F000E3C
:1026C8007F6F9FC080F0A0C081F0F9EC04F000019A
:1026D8007C51CA277D51CB233AC0F6FF3BC0F7FF98
:1026E800F86A0800F5500009D8A47DEF13F07FEFD1
:1026F80013F05DEF13F0CAC09BF0CBC09CF0120042
:102708009F0E1A6EFF0E1B6E18C01CF019C01DF02C
:102718001A501C261B501D221D500AE11A0E1C5C63
:10272800D8A099EF13F09CEF13F0010E9DEF13F072
:10273800000E1E6E1F6A1E501F10D8B4A6EF13F0AD
:10274800A8EF13F0AEEF13F05F0E1814186E196AA5
:10275800B2EF13F018C018F019C019F01200010EEA
:10276800186E200E12181310D8B4BDEF13F0BFEF77
:1027780013F0D8EF13F0F70E146EFF0E156E12C09B
:1027880016F013C017F014501626155017221750BC
:1027980009E1050E165CD8A0D4EF13F0D6EF13F0BC
:1027A800D8EF13F0000E186E18C012F0136A12005A
:1027B800220EF66E2C0EF76E000EF86E0900F5CF9D
:1027C800F2F00900F5CFF3F000EEF4F014EE00F0AB
:1027D800EE6AE550E150FCE1E250FAE100EECAF0A1
:1027E800280EEE6AE806FDE100EE3CF0110EEE6AF6
:1027F800E806FDE14D904D92000129EF00F0000E32
:10280800236E000E226E14EF14F021C014F0156A26
:102818001FC016F020C017F0C0EC12F0224A232A7D
:1028280022501D24D96E23501E20DA6EDF50216EEF
:102838002150D8A422EF14F024EF14F009EF14F07B
:10284800120025BE32EF14F0255006E12404D8B05A
:1028580030EF14F032EF14F040EF14F024C026F0FB
:1028680025C027F0261E271E264A272A26C024F020
:1028780027C025F044EF14F024C024F025C025F02B
:102888001200080EB86E900EAB6E240EAC6E820E5F
:10289800AF6E060EB06E000E126E000E136EF9ECDF
:1028A80015F0000E126E000E136EF4EC15F0000E0B
:1028B800126E000E136EFEEC15F0000E4A6E12003A
:1028C8009F0E146EFF0E156E200E1210166E000E5F
:1028D8001310176E145016261550172217500AE1B8
:1028E8001A0E165CD8A07BEF14F07EEF14F0010EE0
:1028F8007FEF14F0000E126E136A12008A980D0E04
:10290800BFEC15F0136E8A881328D8A48EEF14F044
:1029180090EF14F093EF14F0FF0E9DEF14F0FF0EFC
:10292800BFEC15F0FF0EBFEC15F0FF0EBFEC15F075
:10293800135012009F0E146EFF0E156E12C016F083
:1029480013C017F0145016261550172217500AE115
:102958001A0E165CD8A0B3EF14F0B6EF14F0010EFF
:10296800B7EF14F0000E126E136A1200BF0E146E49
:10297800FF0E156E12C016F013C017F0145016266D
:102988001550172217500AE11A0E165CD8A0CFEF7F
:1029980014F0D2EF14F0010ED3EF14F0000E126E03
:1029A800136A1200D00E146EFF0E156E12C016F0C8
:1029B80013C017F0145016261550172217500AE1A5
:1029C8000A0E165CD8A0EBEF14F0EEEF14F0010E2F
:1029D800EFEF14F0000E126E136A1200D59C000E71
:1029E800D76E000ED66ED650D7CF14F0156A14C025
:1029F80015F0146A1410466E1550476EF294F28A58
:102A0800240E126E2C0E136EEFEC15F09F0ED56E81
:102A1800120012C014F013C015F015EF15F0124A89
:102A2800132A12C0D9FF13C0DAFFDF50D8A41FEF52
:102A380015F021EF15F013EF15F01450125C126E1B
:102A480015501358136E1200F2944750D76E46C0B3
:102A5800D6FF48504910D8B434EF15F036EF15F0CA
:102A680042EF15F002D842EF15F00500FA6E485013
:102A7800FD6E4950FE6EFF6AFA5012001200000EF9
:102A8800896E000E8A6E000E8B6EBF0E926EE50E7A
:102A9800936E8F0E946E0C0E0F013A6F310E396FD4
:102AA8002F0E386F000E616EF18E1200A30E00011A
:102AB800A96F000EAA6F000E9B6F000E9C6FA1C03D
:102AC8009DF0A2C09EF0A90E9F6F000EA06F52EC61
:102AD80013F012009EAA73EF15F075EF15F06EEF64
:102AE80015F0000E4A6EABA27CEF15F07EEF15F0E4
:102AF80080EF15F0AB98AB88AE501200125014025C
:102B0800F3CF16F0F4CF17F012501502F350172632
:102B180013501402F350172616C012F017C013F002
:102B28001200D6CF07F0D7CF08F00850036E075031
:102B3800056E03C006F005C001F006C002F01200E1
:102B4800700ED36E040ED26E400E9B6ED2AEAFEFF7
:102B580015F0B1EF15F0AAEF15F012000DEC16F014
:102B6800E1EC15F043EC15F0A4EC15F0F2EC14F0E0
:102B780045EC14F01200126E12C06FFFA4AEC7EF3E
:102B880015F0C9EF15F0C2EF15F0A49E6F501200B2
:102B9800126E9EA8D2EF15F0D4EF15F0CDEF15F018
:102BA80012C0ADFF12009EBADCEF15F0DFEF15F092
:102BB800010EE0EF15F0000E1200400E6D6E010ED2
:102BC8006C6E010E6E6E93926C9A12001350D76E53
:102BD80012C0D6FF120012C048F013C049F012000C
:102BE80012C0CEF013C0CFF0120012C042F013C0D2
:102BF80043F0120012C0CCF013C0CDF01200136ED7
:102C08001350CCEC15F012000A50D76E09C0D6FF4D
:0E2C18001200D09E12006C9A120040061200AC
:10F93C0000809FBBD5E9F8FFFFF8E9D5BB9F80613C
:10F94C00452B1708010108172B4561014001000DDB
:10F95C000A596F75206D6179207465726D696E61DD
:10F96C0074652073706F6F6C696E672061742061B1
:10F97C006E7974696D6520776974682061206B6598
:10F98C007970726573732E0D0A546F2073706F6FDC
:10F99C006C207465726D696E616C20636F6E74653A
:10F9AC006E747320696E746F20612066696C6520BB
:10F9BC00666F6C6C6F7720746865736520696E7305
:10F9CC007472756374696F6E733A0D0A0D0A52691D
:10F9DC00676874206D6F75736520636C69636B2049
:10F9EC006F6E20746865207570706572206C65662A
:10F9FC0074206F66207468652050755454592077B4
:10FA0C00696E646F770D0A53656C6563743A2020D8
:10FA1C002020204368616E67652073657474696E7D
:10FA2C0067732E2E2E0D0A53656C6563743A202075
:10FA3C002020204C6F6767696E670D0A53656C65F3
:10FA4C0063743A202020202053657373696F6E20F5
:10FA5C006C6F6767696E673A20416C6C20736573D5
:10FA6C0073696F6E206F75747075740D0A4C6F67C7
:10FA7C002066696C65206E616D653A202042726F5C
:10FA8C0077736520616E642070726F76696465208F
:10FA9C0061202E63737620657874656E73696F6E62
:10FAAC0020746F20796F75722066696C65206E61A9
:10FABC006D650D0A53656C6563743A202020202017
:10FACC004170706C790D0A507265737320616E7998
:10FADC00206B657920746F2073746172740053709D
:10FAEC006F6F6C656420353132206F7574206F66D2
:10FAFC00207468652035313220626C6F636B732E15
:10FB0C00200D0A546F20636C6F7365207468652038
:10FB1C0066696C6520666F6C6C6F772074686573B2
:10FB2C006520696E737472756374696F6E733A20B5
:10FB3C000D0A200D0A5269676874206D6F75736524
:10FB4C0020636C69636B206F6E2074686520757020
:10FB5C00706572206C656674206F66207468652011
:10FB6C0050755454592077696E646F77200D0A5381
:10FB7C00656C6563743A20202020204368616E67B1
:10FB8C00652073657474696E67732E2E2E200D0AB2
:10FB9C0053656C6563743A20202020204C6F676796
:10FBAC00696E67200D0A53656C6563743A202020DA
:10FBBC00202053657373696F6E20206C6F676769C3
:10FBCC006E673A204E6F6E65200D0A53656C656347
:10FBDC00743A20202020204170706C790057726993
:10FBEC0074696E672073696E652077617665207421
:10FBFC006F206D656D6F72792C20737461727469EE
:10FC0C006E672077697468207468652063757272FA
:10FC1C00656E7420616464726573732E2050726516
:10FC2C00737320616E79206B657920746F20737407
:10FC3C006F702E0D0A00507265737320616E7920FF
:10FC4C006B657920746F20737461727420726563B4
:10FC5C006F7264696E6720617564696F20616E6490
:10FC6C0020707265737320616E79206B65792074D6
:10FC7C006F2073746F70207265636F7264696E6746
:10FC8C000D0A00313A207772697465206120706525
:10FC9C0072666563742032362076616C75652073EC
:10FCAC00696E65207761766520746F2074686520B5
:10FCBC00534420636172640D0A000D0A2D2D2D2D05
:10FCCC002D2D2D2D2D2D2D2D2D2D2D2D2D2D2D2D58
:10FCDC002D2D2D2D2D2D2D2D2D2D2D2D2D2D2D2D48
:10FCEC002D2D2D2D2D2D2D2D2D2D2D2D2D0D0A00A8
:10FCFC002B2F2D3A20496E6372656173652F446515
:10FD0C00637265617365207468652073616D706CD6
:10FD1C006520726174652062792031302075730D15
:10FD2C000A00573A205772697465206D6963726FC7
:10FD3C0070686F6E65203D3E205344206361726491
:10FD4C0020617420313630302075730D0A005772E3
:10FD5C0069746520626C6F636B206F6620646563E9
:10FD6C0072656D656E74656420382D6269742076D9
:10FD7C00616C7565733A0D0A00723A2072656164A4
:10FD8C00206120626C6F636B206F6620256420629B
:10FD9C00797465732066726F6D20534420636172B1
:10FDAC00640D0A004E6F20636F6E66696775726131
:10FDBC0074696F6E206F6620646576656C6F706D0C
:10FDCC00656E7420626F6172640D0A3E2000612FB3
:10FDDC00412064656372656173652F696E6372653A
:10FDEC00617365207265616420616464726573730C
:10FDFC000D0A00733A2073706F6F6C206D656D6F18
:10FE0C00727920746F2061206373762066696C654B
:10FE1C000D0A00556E646572666C6F7765642074AC
:10FE2C006F206869676820616464726573730D0A7A
:10FE3C00005468652073616D706C696E6720726127
:10FE4C0074652069732025752075730D0A00426C4A
:10FE5C006F636B204C656E67746820526573706FAE
:10FE6C006E73653A2025780D0A004F766572666CC4
:10FE7C006F77656420746F206C6F77206164647297
:10FE8C006573730D0A00434D44302C205265736525
:10FE9C007420526573706F6E73653A2025780D0A65
:10FEAC0000434D44312C20496E69742052657370A7
:10FEBC006F6E73653A2025780D0A00693A20496EF9
:10FECC00697469616C697A6520534420636172645A
:10FEDC000D0A007A3A20436C6561722074686520C3
:10FEEC007465726D696E616C0D0A002020202053C0
:10FEFC0074617475733A2020202020253032780DDF
:10FF0C000A005A3A2052657365742070726F6365EB
:10FF1C0073736F720D0A0044656372656173656477
:10FF2C0020616464726573730D0A00496E637265B7
:10FF3C006173656420616464726573730D0A0053A8
:10FF4C0044206361726420616464726573733A2047
:10FF5C002000534420636172642074657374696E6D
:10FF6C00670D0A00556E6B6E6F776E206B6579208E
:10FF7C0025630D0A00202020204164647265737390
:10FF8C003A202020200057726974652073746F70BA
:10FF9C007065640D0A005265616420626C6F636B5E
:10FFAC003A200D0A003F3A2068656C70206D656E32
:10FFBC00750D0A00696E4C61622030390D0A0044DF
:10FFCC0065762732310D0A006F3A096F6B0D0A0006
:10FFDC006F3A206B0D0A0025303278200025640D15
:10FFEC000A0025303478000D0A0A002563002E0023
:03FFFC003A0000C8
:020000040020DA
:08000000FFFFFFFFFFFFFFFF00
:020000040030CA
:0E000000FF281F3CFFBF85FF0FC00FE00F4021
:00000001FF
