:020000040000FA
:040000001FEF00F0FE
:100008005982FACF05F0FBCF06F0F2AA0EEF00F006
:1000180010EF00F019EF00F0F2A415EF00F017EF61
:1000280000F019EF00F0FAEC0FF006C0FBFF05C076
:10003800FAFF5992110016EF10F0000E00019A6FA6
:10004800000E9B6F000E9C6F000E9D6F300E966F1A
:10005800E3EC10F08A88000E086E000E076E1BECA9
:1000680011F0F294F2A43BEF00F03DEF00F036EF10
:1000780000F0CE0E076E200E086E20EC11F0F28E06
:10008800F28CC50E00017F6FFF0E806FAEEC10F092
:10009800730E00017F6FFF0E806FAEEC10F0D00E74
:1000A80000017F6FFF0E806FAEEC10F0890E00012B
:1000B8007F6FFD0E806FAEEC10F040EC11F0000E7B
:1000C8004BEC0DF008EC11F00009D8B46EEF00F01D
:1000D80070EF00F066EF00F099EC10F00001976FF8
:1000E8000EEF03F03F0E7F6FFC0E806FAEEC10F04A
:1000F800600E00017F6FFF0E806FAEEC10F0EE0E09
:1001080000017F6FFF0E806F9CC081F09DC082F060
:10011800836B846BAEEC10F0FC0E00017F6FFF0E5A
:10012800806FAEEC10F0EE0E00017F6FFF0E806F57
:10013800FF0E9A15816FFF0E9B15826F000E9C159E
:10014800836F000E9D15846FAEEC10F0B30E0001A6
:100158007F6FFF0E806FAEEC10F0410E00017F6FD5
:10016800FC0E806FAEEC10F0B60E00017F6FFF0E34
:10017800806FAEEC10F0E10E00017F6FFF0E806F14
:10018800AEEC10F0230E00017F6FFF0E806FAEEC17
:1001980010F0F40E00017F6FFE0E806FAEEC10F0D1
:1001A800750E00017F6FFC0E806FAEEC10F0D80E5C
:1001B80000017F6FFD0E806FAEEC10F0A90E0001FC
:1001C8007F6FFC0E806FAEEC10F0DC0E00017F6FCD
:1001D800FE0E806FAEEC10F0B30E00017F6FFD0EC7
:1001E800806FAEEC10F0340E00017F6FFD0E806F53
:1001F800020E826F000E816FAEEC10F05F0E0001F0
:100208007F6FFD0E806F020E826F000E816FAEEC65
:1002180010F0410E00017F6FFC0E806FAEEC10F005
:1002280066EF00F0D90E7F6FFF0E806FAEEC10F016
:1002380066EF00F0000E996F000E986FF50E7F6F55
:10024800FF0E806FAEEC10F00001984B992B99517E
:1002580009E1280E985DD8A034EF01F036EF01F0DF
:1002680022EF01F0FF0066EF00F0000E996F000E1C
:10027800986FF50E7F6FFF0E806FAEEC10F00001E7
:10028800984B992B995109E1280E985DD8A04FEF0A
:1002980001F051EF01F03DEF01F066EF00F0990E2B
:1002A8007F6FFB0E806FAEEC10F0EC0E00017F6FDD
:1002B800FB0E806FAEEC10F0A70E00017F6FFE0EF4
:1002C800806FAEEC10F0DD0E00017F6FFC0E806FCA
:1002D800AEEC10F0370E00017F6FFE0E806FAEECB3
:1002E80010F008EC11F00009D8B47DEF01F07FEFB1
:1002F80001F075EF01F099EC10F01A0E00017F6F14
:10030800FE0E806F96C081F0826B9651F0EC10F073
:100318000001936F9351836F846BAEEC10F0000172
:10032800962B66EF00F040EC11F0000E4BEC0DF050
:10033800010E12EC0BF066EF00F0610E9719D8A4CD
:10034800A8EF01F0AAEF01F0D4EF01F0000E9A5FD8
:10035800020E9B5B000E9C5B000E9D5B040E9D5D78
:10036800D8A0B9EF01F0BBEF01F0CCEF01F0FC0E23
:100378007F6FFD0E806FAEEC10F0000E00019A6FDB
:10038800FE0E9B6FFF0E9C6F030E9D6FFCEF01F03E
:10039800380E7F6FFF0E806FAEEC10F0FCEF01F0AF
:1003A800000E9A27020E9B23000E9C23000E9D230D
:1003B800040E9D5DD8A0E3EF01F0E5EF01F0F6EF44
:1003C80001F0700E7F6FFE0E806FAEEC10F0000E25
:1003D80000019A6F000E9B6F000E9C6F000E9D6FC0
:1003E800FCEF01F04C0E7F6FFF0E806FAEEC10F04B
:1003F800600E00017F6FFF0E806FAEEC10F0EE0E06
:1004080000017F6FFF0E806F9CC081F09DC082F05D
:10041800836B846BAEEC10F0FC0E00017F6FFF0E57
:10042800806FAEEC10F0EE0E00017F6FFF0E806F54
:10043800FF0E9A15816FFF0E9B15826F000E9C159B
:10044800836F000E9D15846FAEEC10F0B30E0001A3
:100458007F6FFF0E806FAEEC10F066EF00F0000EBD
:10046800996F000E986FCB0E9825D96E000E9921C2
:10047800DA6E9851FF0ADF6E984B992B020E995D40
:10048800D8A049EF02F04BEF02F037EF02F08B886B
:100498009AC008F09BC009F09CC00AF09DC00BF000
:1004A800CB0E0C6E000E0D6E39EC0EF08AEC0FF0D0
:1004B8000001956F9529D8B464EF02F066EF02F059
:1004C8005AEF02F08B98090E7F6FFD0E806FAEEC2D
:1004D80010F0960E00017F6FFF0E806FAEEC10F0EB
:1004E800EE0E00017F6FFF0E806F9CC081F09DC0F3
:1004F80082F0836B846BAEEC10F0FC0E00017F6F12
:10050800FF0E806FAEEC10F0EE0E00017F6FFF0E55
:10051800806FFF0E9A15816FFF0E9B15826F000E7C
:100528009C15836F000E9D15846FAEEC10F0B30E12
:1005380000017F6FFF0E806FAEEC10F00C0E000113
:100548007F6FFF0E806F95C081F0826BAEEC10F06C
:1005580066EF00F08B8A9AC008F09BC009F09CC037
:100568000AF09DC00BF0CB0E0C6E000E0D6EA1ECC8
:100578000DF08B9AA70E00017F6FFF0E806FAEEC17
:1005880010F0960E00017F6FFF0E806FAEEC10F03A
:10059800EE0E00017F6FFF0E806F9CC081F09DC042
:1005A80082F0836B846BAEEC10F0FC0E00017F6F61
:1005B800FF0E806FAEEC10F0EE0E00017F6FFF0EA5
:1005C800806FFF0E9A15816FFF0E9B15826F000ECC
:1005D8009C15836F000E9D15846FAEEC10F0B30E62
:1005E80000017F6FFF0E806FAEEC10F0CB0E0001A4
:1005F800896F000E8A6F8BEC08F066EF00F0850EAD
:100608007F6FFF0E806F97C081F0826BAEEC10F0A9
:1006180066EF00F09751936F946B9451000AD8B429
:1006280018EF03F003EF03F093513F0AD8B476EFC5
:1006380000F07E0AD8B4A1EF01F01B0AD8B41EEF6F
:1006480001F03B0AD8B4A1EF01F0080AD8B497EF3B
:1006580001F0060AD8B416EF01F01D0AD8B4AEEFBF
:1006680002F0060AD8B453EF01F0030AD8B433EF06
:1006780002F00D0AD8B439EF01F003EF03F01FEFD1
:1006880000F04DC0D9FF4EC0DAFFDECFF6FFDDCF58
:10069800F7FFF86A0800F550250AD8A456EF03F0CA
:1006A80058EF03F095EF05F04DC0D9FF4EC0DAFFC3
:1006B800DE2A000EDD22000E546E000E536E53C06B
:1006C80055F054C056F00001A069A169000E756F7D
:1006D800000E746FB7EF03F055804DC0D9FF4EC0C0
:1006E800DAFFDE2A000EDD22B7EF03F0558271EF44
:1006F80003F0558471EF03F0558671EF03F05588C8
:1007080071EF03F0000E756F010E746FB7EF03F011
:100718004DC0D9FF4EC0DAFFDECFF6FFDDCFF7FFC1
:10072800F86A0800F550606F616B6151000AD8B42F
:10073800A0EF03F086EF03F06051200AD8B480EFF1
:1007480003F0030AD8B483EF03F0080AD8B47DEFA6
:1007580003F0060AD8B470EF03F01D0AD8B47AEF94
:1007680003F086EF03F074517511D8B4BEEF03F0AF
:10077800C0EF03F08CEF03F055A0C5EF03F0C7EF0F
:1007880003F0C8EF03F055924DC0D9FF4EC0DAFF11
:10079800DECFF6FFDDCFF7FFF86A0800F5502A0A2A
:1007A800D8A4D9EF03F0DBEF03F004EF04F04DC059
:1007B800D9FF4EC0DAFFDE2A000EDD224FC0D9FF76
:1007C80050C0DAFFDFCF60F0020EDE26DFCF61F027
:1007D800000EDD2260C0D9FF61C0DAFFDECF53F022
:1007E800DDCF54F054BEFDEF03F0FBEF03F049EF0B
:1007F80004F05580536C541ED8B0542A49EF04F0C5
:100808004DC0D9FF4EC0DAFFDECF0EF0DDCF0FF0BE
:1008180081EC09F00EC053F00FC054F01BEF04F048
:100828004DC0D9FF4EC0DAFFDE2A000EDD22D00E01
:100838000001606FFF0E616F4DC0D9FF4EC0DAFF37
:10084800DECFF6FFDDCFF7FFF86A0800F550626FDC
:10085800636B605162276151632363510AE10A0E99
:10086800625DD8A03AEF04F03DEF04F0010E3EEFD0
:1008780004F0000E766F776B76517711D8A447EFA6
:1008880004F049EF04F014EF04F04DC0D9FF4EC056
:10089800DAFFDECFF6FFDDCFF7FFF86A0800F55084
:1008A800630AD8A45AEF04F05CEF04F083EF04F075
:1008B8004DC0D9FF4EC0DAFFDE2A000EDD224FC040
:1008C800D9FF50C0DAFFDFCF60F0020EDE26DFCF9F
:1008D80061F0000EDD2260C0D9FF61C0DAFFDF5091
:1008E800786F4BC012F04CC013F078C014F080EC55
:1008F8000CF012C04BF013C04CF0B1EF05F04DC036
:10090800D9FF4EC0DAFFDECFF6FFDDCFF7FFF86A7A
:100918000800F550640AD8B494EF04F096EF04F098
:10092800A9EF04F04DC0D9FF4EC0DAFFDECFF6FFC5
:10093800DDCFF7FFF86A0800F550690AD8A4A7EFD9
:1009480004F0A9EF04F0E9EF04F04DC0D9FF4EC060
:10095800DAFFDE2A000EDD224FC0D9FF50C0DAFFD1
:10096800DFCF60F0020EDE26DFCF61F0000EDD2261
:1009780060C0D9FF61C0DAFFDECF64F0DDCF65F07B
:10098800000E65BFFF0E666F676F686F696F6A6FED
:100998006B6F4BC024F04CC025F064C026F065C0D6
:1009A80027F066C028F067C029F068C02AF069C03F
:1009B8002BF06AC02CF06BC02DF0B2EC05F024C00F
:1009C8004BF025C04CF0B1EF05F04DC0D9FF4EC03B
:1009D800DAFFDECFF6FFDDCFF7FFF86A0800F55043
:1009E800780AD8B4FAEF04F0FCEF04F00FEF05F042
:1009F8004DC0D9FF4EC0DAFFDECFF6FFDDCFF7FFDF
:100A0800F86A0800F550580AD8A40DEF05F00FEF62
:100A180005F05EEF05F04DC0D9FF4EC0DAFFDECF1E
:100A2800F6FFDDCFF7FFF86A0800F5CF78F04DC084
:100A3800D9FF4EC0DAFFDE2A000EDD224FC0D9FFF3
:100A480050C0DAFFDFCF60F0020EDE26DFCF61F0A4
:100A5800000EDD2260C0D9FF61C0DAFFDECF62F090
:100A6800DDCF63F062C06CF063C06DF06E6B6F6BCE
:100A7800706B716B726B736B4BC024F04CC025F0BC
:100A88006CC026F06DC027F06EC028F06FC029F04A
:100A980070C02AF071C02BF072C02CF073C02DF01A
:100AA80078C02EF021EC07F024C04BF025C04CF0A4
:100AB800B1EF05F04DC0D9FF4EC0DAFFDECFF6FF2B
:100AC800DDCFF7FFF86A0800F550250AD8A46FEFC4
:100AD80005F071EF05F088EF05F04DC0D9FF4EC065
:100AE800DAFFDE2A000EDD22000E0A6E250E096EE0
:100AF8004BC00BF04CC00CF0EEEC0DF0000E4C6E41
:100B0800010E4B6EB1EF05F04DC0D9FF4EC0DAFFB4
:100B1800DE2A000EDD22000E4C6E000E4B6EB1EF89
:100B280005F04DC0D9FF4EC0DAFFDECFF6FFDDCFAE
:100B3800F7FFF86A0800F550096E0A6A4BC00BF017
:100B48004CC00CF0EEEC0DF04DC0D9FF4EC0DAFFF2
:100B5800DE2A000EDD2282EF05F0120026C03EF0EC
:100B680027C03FF028C040F029C041F02AC042F019
:100B78002BC043F02CC044F02DC045F045BEC7EF54
:100B880005F0CAEF05F0010ECBEF05F0000E3C6E44
:100B98003D6A3C503D10D8B4D4EF05F0D6EF05F0CF
:100BA800E6EF05F0451E441E431E421E411E401E30
:100BB8003F1E3E6C000E3F22402241224222432229
:100BC800442245220001A1BFECEF05F0EEEF05F04D
:100BD800EFEF05F05592A1BFFCEF05F0A15106E13A
:100BE800A005D8B0FAEF05F0FCEF05F002EF06F02B
:100BF800000E396E010E386E06EF06F0A0C038F010
:100C0800A1C039F053C03AF054C03BF03C503D10FD
:100C1800D8A411EF06F013EF06F01AEF06F055A46A
:100C280018EF06F01AEF06F01DEF06F03A06D8A006
:100C38003B06000E476E1F0E466E000ECA6FA1EFF0
:100C480006F04606D8A04706AB0E4624D96E000E1D
:100C58004720DA6E3EC007F03FC008F040C009F0F8
:100C680041C00AF042C00BF043C00CF044C00DF084
:100C780045C00EF00A0E0F6E000E106E000E116EBB
:100C8800000E126E000E136E000E146E000E156E1E
:100C9800000E166ECEEC0BF007C02EF008C02FF039
:100CA80009C030F00AC031F00BC032F00CC033F08C
:100CB8000DC034F00EC035F02EC019F030C01AF057
:100CC8004CEC0FF01950300FDF6E3806D8A03906FB
:100CD8003A06D8A03B063EC007F03FC008F040C027
:100CE80009F041C00AF042C00BF043C00CF044C008
:100CF8000DF045C00EF00A0E0F6E000E106E000EBD
:100D0800116E000E126E000E136E000E146E000EA1
:100D1800156E000E166E4EEC0AF007C03EF008C0C5
:100D28003FF009C040F00AC041F00BC042F00CC0CF
:100D380043F00DC044F00EC045F047BEACEF06F0DE
:100D4800475008E14604D8A0ACEF06F0AEEF06F035
:100D5800DEEF06F03E503F104010411042104310A5
:100D680044104510D8A4BBEF06F0BDEF06F025EF00
:100D780006F039BECAEF06F0395006E13804D8B09B
:100D8800C8EF06F0CAEF06F025EF06F03BBED5EF38
:100D980006F03B5008E13A04D8A0D5EF06F0D7EFAB
:100DA80006F0DEEF06F055B2DCEF06F0DEEF06F0F7
:100DB80025EF06F03C503D10D8A4E5EF06F0E7EF2C
:100DC80006F0EEEF06F055A4ECEF06F0EEEF06F0B5
:100DD8000CEF07F04606D8A047063C503D10D8A4B3
:100DE800F8EF06F0FAEF06F000EF07F0000E376EA6
:100DF8002B0E366E04EF07F0000E376E2D0E366E92
:100E0800AB0E4624D96E000E4720DA6E36C0DFFFDF
:100E180024C019F025C01AF0AB0E46241B6E000E34
:100E280047201C6E3AC01DF03BC01EF0EAEC0CF0E7
:100E380019C024F01AC025F012000001A1BF27EF45
:100E480007F029EF07F02AEF07F05592A1BF37EF17
:100E580007F0A15106E1A005D8B035EF07F037EF4C
:100E680007F03DEF07F0000E3C6E010E3B6E41EFC0
:100E780007F0A0C03BF0A1C03CF053C03DF054C007
:100E88003EF055A84AEF07F04CEF07F050EF07F097
:100E9800FE0E3D26FF0E3E2226C03FF027C040F042
:100EA80028C041F029C042F02AC043F02BC044F0CA
:100EB8002CC045F02DC046F0000E486E1F0E476E40
:100EC800000ECA6F1BEF08F04706D8A048060F0EA1
:100ED8003F14496E4A6A4ABE7BEF07F04A5009E15F
:100EE8000A0E495CD8A07BEF07F07DEF07F085EF8D
:100EF80007F0570E4924496E000E4A204A6E8BEFC0
:100F080007F0300E4924496E000E4A204A6EBF0E83
:100F18002F6EFF0E306E2E50316E326A2F503126F2
:100F28003050322232500AE11A0E315CD8A09FEFBD
:100F380007F0A2EF07F0010EA3EF07F0000E376EDF
:100F4800386A37503810D8B4ACEF07F0AEEF07F076
:100F5800DEEF07F09F0E2F6EFF0E306E200E491049
:100F6800316E000E4A10326E2F5031263050322228
:100F780032500AE11A0E315CD8A0C5EF07F0C8EF6D
:100F880007F0010EC9EF07F0000E396E3A6A3950C2
:100F98003A10D8B4D2EF07F0D4EF07F0DEEF07F03D
:100FA80049C00DF04AC00EF0B2EC0EF00DC049F089
:100FB8000EC04AF0AB0E4724D96E000E4820DA6EF8
:100FC80049C0DFFF3B06D8A03C063D06D8A03E0638
:100FD8003FC02FF040C030F041C031F042C032F085
:100FE80043C033F044C034F045C035F046C036F055
:100FF800050E08EF08F0D8903632353234323332E5
:101008003232313230322F32E82EFFEF07F02FC064
:101018003FF030C040F031C041F032C042F033C040
:1010280043F034C044F035C045F036C046F048BE01
:1010380027EF08F0485009E1020E475CD8A027EFD7
:1010480008F029EF08F059EF08F03F504010411020
:1010580042104310441045104610D8A436EF08F04B
:1010680038EF08F068EF07F03CBE45EF08F03C5059
:1010780006E13B04D8B043EF08F045EF08F068EF0D
:1010880007F03EBE50EF08F03E5008E13D04D8A0FE
:1010980050EF08F052EF08F059EF08F055B257EF4B
:1010A80008F059EF08F068EF07F055A85EEF08F070
:1010B80060EF08F076EF08F04706D8A04806AB0EB8
:1010C8004724D96E000E4820DA6E2EC0DFFF47068F
:1010D800D8A04806AB0E4724D96E000E4820DA6E19
:1010E800300EDF6E24C019F025C01AF0AB0E47246D
:1010F8001B6E000E48201C6E3DC01DF03EC01EF049
:10110800EAEC0CF019C024F01AC025F01200F30E16
:1011180000017F6FFF0E806FAEEC10F0000E000133
:10112800926F000E916F91519211D8B49EEF08F012
:10113800A0EF08F0B5EF08F0070E91158B6F000EC1
:1011480092158C6F8B518C11D8A4ADEF08F0AFEFCE
:1011580008F0B5EF08F0A50E7F6FFF0E806FAEECBC
:1011680010F0000191519211D8B4BDEF08F0BFEF13
:1011780008F018EF09F00F0E91158B6F000E9215FD
:101188008C6F8B518C11D8A4CCEF08F0CEEF08F0FF
:1011980018EF09F0A40E7F6FFF0E806FAEEC10F011
:1011A800F00E000191258D6FFF0E92218E6F07EFD3
:1011B80009F08D518925D96E8E518A21DA6E200E5B
:1011C800DF60E9EF08F0EBEF08F0F3EF08F0FA0E54
:1011D8007F6FFF0E806FAEEC10F004EF09F0F70E92
:1011E8007F6FFF0E806F8D518925D96E8E518A21B0
:1011F800DA6EDF508B6F8B51816F826BAEEC10F023
:1012080000018D4B8E2B91518D5D92518E59D8A036
:1012180010EF09F012EF09F0DDEF08F0B30E7F6F61
:10122800FF0E806FAEEC10F0E80E00017F6FFF0E2E
:10123800806F91518925D96E92518A21DA6EDF50DB
:101248008B6F8B51816F826BAEEC10F00001914B6C
:10125800922B020E925DD8A034EF09F036EF09F018
:1012680097EF08F0A30E7F6FFF0E806FAEEC10F0C3
:10127800F00E000191258F6FFF0E9221906F6FEF96
:1012880009F08F518925D96E90518A21DA6E200E86
:10129800DF6051EF09F053EF09F05BEF09F0FA0E48
:1012A8007F6FFF0E806FAEEC10F06CEF09F0F70E59
:1012B8007F6FFF0E806F8F518925D96E90518A21DB
:1012C800DA6EDF508B6F8B51816F826BAEEC10F052
:1012D80000018F4B902B91518F5D92519059D8A05E
:1012E80078EF09F07AEF09F045EF09F0B30E7F6F58
:1012F800FF0E806FAEEC10F01200000E1C6E000E98
:101308001B6E000E156E000E146E8DEF09F00E4A5E
:101318000F2A010E1A6E0EC0F6FF0FC0F7FFF86A0B
:101328000800F550200AD8B49CEF09F09EEF09F0A8
:10133800BCEF09F0F70E106EFF0E116E0EC0F6FF2F
:101348000FC0F7FFF86A0800F550126E136A1050C4
:10135800122611501322135009E1050E125CD8A071
:10136800B8EF09F0BAEF09F0BCEF09F0000E1A6EF9
:101378001AC016F0176A16501710D8A4C6EF09F04D
:10138800C8EF09F08BEF09F0D2EF09F0000E156EE7
:10139800010E146E0E4A0F2A09EF0AF00EC0F6FF6E
:1013A8000FC0F7FFF86A0800F550106E116A115067
:1013B800000AD8B4E2EF09F009EF0AF010502B0A3E
:1013C800D8B4CEEF09F0060AD8B4CAEF09F009EF8D
:1013D8000AF01BC007F01CC008F0000E0A6E0A0EC7
:1013E800096EC2EC10F00EC0F6FF0FC0F7FFF86AE6
:1013F8000800F550075E000E085A300E07241B6ED1
:10140800000E08201C6ECEEF09F0D00E106EFF0EF5
:10141800116E0EC0F6FF0FC0F7FFF86A0800F5500E
:10142800126E136A105012261150132213500AE13B
:101438000A0E125CD8A023EF0AF026EF0AF0010E7C
:1014480027EF0AF0000E186E196A18501910D8A460
:1014580030EF0AF032EF0AF0EDEF09F014501510F2
:10146800D8A439EF0AF03BEF0AF049EF0AF01BC0A5
:1014780010F01CC011F0101E111E104A112A10C0C5
:101488000EF011C00FF04DEF0AF01BC00EF01CC09B
:101498000FF01200000E186E16BE57EF0AF055EF47
:1014A8000AF069EF0AF0161E151E141E131E121EEE
:1014B800111E101E0F6C000E102211221222132270
:1014C800142215221622010E186E0EBE70EF0AF0B5
:1014D8006EEF0AF082EF0AF00E1E0D1E0C1E0B1E98
:1014E8000A1E091E081E076C000E082209220A227D
:1014F8000B220C220D220E22010E181A20EE19F0D2
:10150800070EDE6AE806FDE20F50101011101210E7
:101518001310141015101610D8B495EF0AF097EFA1
:101528000AF0E9EF0AF0010E176EA5EF0AF0D8905D
:101538000F3610361136123613361436153616365F
:10154800172A16AEAAEF0AF0ACEF0AF09BEF0AF0E2
:10155800D89019361A361B361C361D361E361F36DD
:1015680020360F50075C1050085811500958125077
:101578000A5813500B5814500C5815500D58165043
:101588000E58D8A0CAEF0AF0CCEF0AF0DDEF0AF047
:101598000F50075E1050085A1150095A12500A5A33
:1015A80013500B5A14500C5A15500D5A16500E5A07
:1015B8001980D89016321532143213321232113281
:1015C80010320F32172EACEF0AF01850D8B4EFEFE4
:1015D8000AF0F1EF0AF001EF0BF0201E1F1E1E1E8D
:1015E8001D1E1C1E1B1E1A1E196C000E1A221B2201
:1015F8001C221D221E221F22202219C007F01AC0F9
:1016080008F01BC009F01CC00AF01DC00BF01EC07A
:101618000CF01FC00DF020C00EF0120000018B6FFF
:10162800000E00018A6F000E896FFF0EF0EC10F0BB
:101638000001894B8A2B8ABF2BEF0BF08A5109E1F5
:101648000A0E895DD8A02BEF0BF02DEF0BF019EFE8
:101658000BF08A98FF0EF0EC10F0400EF0EC10F052
:10166800000EF0EC10F0000EF0EC10F0000EF0ECB4
:1016780010F0000EF0EC10F0950EF0EC10F0FF0EEC
:10168800F0EC10F0FF0EF0EC10F000018C6F8A887F
:101698008B05D8A452EF0BF054EF0BF05DEF0BF075
:1016A8008C0E7F6FFE0E806F8CC081F0826BAEEC6B
:1016B80010F08A98FF0EF0EC10F0410EF0EC10F0EC
:1016C800000EF0EC10F0000EF0EC10F0000EF0EC54
:1016D80010F0000EF0EC10F0FF0EF0EC10F0FF0E22
:1016E800F0EC10F0FF0EF0EC10F000018C6F8A881F
:1016F8008C51D8A482EF0BF084EF0BF05DEF0BF068
:101708008B05D8A48AEF0BF08CEF0BF095EF0BF05C
:10171800C20E7F6FFE0E806F8CC081F0826BAEECC4
:1017280010F08A98FF0EF0EC10F0500EF0EC10F06C
:10173800000EF0EC10F0000EF0EC10F0020EF0ECE1
:1017480010F0000EF0EC10F0FF0EF0EC10F0FF0EB1
:10175800F0EC10F0FF0EF0EC10F000018C6F8A88AE
:101768008C29D8B4BAEF0BF0BCEF0BF095EF0BF067
:101778008B05D8A4C2EF0BF0C4EF0BF0CDEF0BF044
:10178800540E7F6FFE0E806F8CC081F0826BAEECC2
:1017980010F01200000E186E0EBED7EF0BF0D5EF4A
:1017A8000BF0E9EF0BF00E1E0D1E0C1E0B1E0A1E91
:1017B800091E081E076C000E082209220A220B22A5
:1017C8000C220D220E22010E186E16BEF0EF0BF041
:1017D800EEEF0BF000EF0CF0161E151E141E131E74
:1017E800121E111E101E0F6C000E10221122122242
:1017F80013221422152216220F5010101110121045
:101808001310141015101610D8B40DEF0CF00FEFBC
:101818000CF057EF0CF0010E176E1DEF0CF0D8907E
:101828000F3610361136123613361436153616366C
:10183800172A16AE22EF0CF024EF0CF013EF0CF081
:101848000F50075C105008581150095812500A5888
:1018580013500B5814500C5815500D5816500E585C
:10186800D8A039EF0CF03BEF0CF04BEF0CF00F5019
:10187800075E1050085A1150095A12500A5A13504C
:101888000B5A14500C5A15500D5A16500E5AD8901F
:1018980016321532143213321232113210320F321C
:1018A800172E24EF0CF01850D8B45DEF0CF05FEF52
:1018B8000CF06FEF0CF00E1E0D1E0C1E0B1E0A1EF8
:1018C800091E081E076C000E082209220A220B2294
:1018D8000C220D220E2207C007F008C008F009C02C
:1018E80009F00AC00AF00BC00BF00CC00CF00DC0D8
:1018F8000DF00EC00EF0120053505410D8A487EF0C
:101908000CF089EF0CF08FEF0CF053C018F054C0B6
:1019180019F095EF0CF0FF0E5324186EFF0E5420AB
:10192800196E55A09AEF0CF09CEF0CF0A5EF0CF097
:1019380014C009F00A6A12C00BF013C00CF0EEECE8
:101948000DF019BEAAEF0CF0ACEF0CF0AEEF0CF0F6
:10195800B2EF0CF0000E196E000E186E000E176E26
:10196800000E166EC4EF0CF0000E0A6E200E096E03
:1019780012C00BF013C00CF0EEEC0DF0164A172A4B
:101988001850165C1750800A156E1950800A1558A1
:10199800D8A0D1EF0CF0D3EF0CF0B8EF0CF055B0A5
:1019A800D8EF0CF0DAEF0CF0E3EF0CF014C009F00C
:1019B8000A6A12C00BF013C00CF0EEEC0DF0010E29
:1019C8001624126E000E1720136E120055A0EFEFAA
:1019D8000CF0F1EF0CF0FBEF0CF01BC012F01CC088
:1019E80013F019C014F01AC015F00AEC0FF01EBE5F
:1019F80000EF0DF002EF0DF008EF0DF01DC022F022
:101A08001EC023F00CEF0DF0000E236E000E226EA8
:101A1800000E216E000E206E1EEF0DF0000E0A6EF5
:101A2800200E096E19C00BF01AC00CF0EEEC0DF088
:101A3800204A212A2250205C2150800A1F6E235000
:101A4800800A1F58D8A02BEF0DF02DEF0DF012EFE4
:101A58000DF055B032EF0DF034EF0DF03EEF0DF014
:101A68001BC012F01CC013F019C014F01AC015F0F6
:101A78000AEC0FF01BC007F01CC008F04CEC10F08B
:101A880022500724196E235008201A6E1200086E7F
:101A98006CBA51EF0DF053EF0DF0A0EF0DF00850B8
:101AA800040D010EF326000EF422950EF324F66EB3
:101AB800FB0EF420F76EF86A000EF8220800F5CF46
:101AC8006DFF0850040D950EF324F66EFB0EF420FE
:101AD800F76EF86A000EF8220800F5CF6CFF000ECA
:101AE8006B6E0850040D020EF326000EF422950EBC
:101AF800F324F66EFB0EF420F76EF86A000EF82257
:101B08000800F5CF6EFF0850040D030EF326000EF3
:101B1800F422950EF324F66EFB0EF420F76EF86AA5
:101B2800000EF8220800F5CF07F007469350071873
:101B3800FD0B0718936E6C8A12008A98FF0EF0EC62
:101B480010F0510EF0EC10F00B50F0EC10F00A50C1
:101B5800F0EC10F00950F0EC10F00850F0EC10F038
:101B6800FF0EF0EC10F0FF0EF0EC10F0FF0AD8B406
:101B7800C0EF0DF0C2EF0DF0B7EF0DF0FF0EF0EC77
:101B880010F0FF0AD8B4CBEF0DF0CDEF0DF0C2EF97
:101B98000DF0000E0F6E000E0E6E0E500C24D96E56
:101BA8000F500D20DA6EFF0EF0EC10F0DF6E0E4ACB
:101BB8000F2A020E0F5CD8A0E4EF0DF0E6EF0DF04F
:101BC800D1EF0DF0FF0EF0EC10F0FF0EF0EC10F07E
:101BD8008A8812000B500C10D8B4F5EF0DF0F7EF0F
:101BE8000DF000EF0EF00B500C10D8A4FEEF0DF026
:101BF80000EF0EF005EF0EF0095034EC11F038EF5D
:101C08000EF020EE04F00B50D9260C50DA22DE50EC
:101C1800DE10D8B412EF0EF014EF0EF02FEF0EF026
:101C280020EE04F00B50D9260C50DA2210EE02F008
:101C38000B50E1260C50E222DE50E65CE650800AAA
:101C4800116EDE50800A1158D8B02DEF0EF02FEF2C
:101C58000EF038EF0EF020EE02F00B50D9260C50A3
:101C6800DA22DE2A000EDD2212008A98FF0EF0EC3E
:101C780010F0580EF0EC10F00B50F0EC10F00A5089
:101C8800F0EC10F00950F0EC10F00850F0EC10F007
:101C9800FF0EF0EC10F0FF0EF0EC10F0FF0AD8B4D5
:101CA80058EF0EF05AEF0EF04FEF0EF0FF0EF0EC7B
:101CB80010F0FF0EF0EC10F0FF0EF0EC10F0FE0E3E
:101CC800F0EC10F0000E0F6E000E0E6E0E500C248D
:101CD800D96E0F500D20DA6EDF50F0EC10F00E4A7E
:101CE8000F2A020E0F5CD8A07CEF0EF07EEF0EF0EC
:101CF8006AEF0EF08A8812007BC051F07CC052F067
:101D0800000E00019F6F000E9E6F9EEF0EF079C0CF
:101D18004BF07AC04CF0510E4D6E000E4E6E7DC0E9
:101D28004FF07EC050F045EC03F04B5000019E2769
:101D38004C509F2351C0F6FF52C0F7FFF86A0800C5
:101D4800F5500009D8A4ABEF0EF0ADEF0EF08BEF15
:101D58000EF09EC079F09FC07AF012009F0E0F6EB1
:101D6800FF0E106E0DC011F00EC012F00F501126AC
:101D78001050122212500AE11A0E115CD8A0C7EFB7
:101D88000EF0CAEF0EF0010ECBEF0EF0000E136E40
:101D9800146A13501410D8B4D4EF0EF0D6EF0EF026
:101DA800DCEF0EF05F0E0D140D6E0E6AE0EF0EF014
:101DB8000DC00DF00EC00EF01200010E0D6E200EBB
:101DC80007180810D8B4EBEF0EF0EDEF0EF006EFA1
:101DD8000FF0F70E096EFF0E0A6E07C00BF008C071
:101DE8000CF009500B260A500C220C5009E1050E84
:101DF8000B5CD8A002EF0FF004EF0FF006EF0FF026
:101E0800000E0D6E0DC007F0086A1200000E186E65
:101E1800000E176E1BEF0FF016C009F00A6A14C007
:101E28000BF015C00CF0EEEC0DF0174A182A1750FD
:101E38001224D96E18501320DA6EDF50166E165021
:101E4800D8A429EF0FF02BEF0FF010EF0FF01200CE
:101E5800080EB86E900EAB6E240EAC6E820EAF6E8E
:101E6800060EB06E000E076E000E086E2AEC11F01A
:101E7800000E076E000E086E25EC11F0000E076EBE
:101E8800000E086E2FEC11F0000E0001AA6F120070
:101E98001ABE59EF0FF01A5006E11904D8B057EFDF
:101EA8000FF059EF0FF067EF0FF019C01BF01AC0D1
:101EB8001CF01B1E1C1E1B4A1C2A1BC019F01CC030
:101EC8001AF06BEF0FF019C019F01AC01AF01200CF
:101ED8009F0E096EFF0E0A6E200E07100B6E000E85
:101EE80008100C6E09500B260A500C220C500AE1FF
:101EF8001A0E0B5CD8A083EF0FF086EF0FF0010EDF
:101F080087EF0FF0000E076E086A12008A980D0E10
:101F1800F0EC10F0086E8A880828D8A496EF0FF025
:101F280098EF0FF09BEF0FF0FF0EA5EF0FF0FF0EED
:101F3800F0EC10F0FF0EF0EC10F0FF0EF0EC10F0EB
:101F4800085012009F0E096EFF0E0A6E07C00BF0B4
:101F580008C00CF009500B260A500C220C500AE15C
:101F68001A0E0B5CD8A0BBEF0FF0BEEF0FF0010EFE
:101F7800BFEF0FF0000E076E086A1200BF0E096E61
:101F8800FF0E0A6E07C00BF008C00CF009500B26B4
:101F98000A500C220C500AE11A0E0B5CD8A0D7EF9D
:101FA8000FF0DAEF0FF0010EDBEF0FF0000E076E07
:101FB800086A1200D00E096EFF0E0A6E07C00BF0F9
:101FC80008C00CF009500B260A500C220C500AE1EC
:101FD8000A0E0B5CD8A0F3EF0FF0F6EF0FF0010E2E
:101FE800F7EF0FF0000E076E086A1200F2945850CF
:101FF800D76E57C0D6FF0001A851A911D8B407EF72
:1020080010F009EF10F015EF10F002D815EF10F0EE
:102018000500FA6EA851FD6EA951FE6EFF6AFA50CE
:102028001200120000EECBF012EE00F0EE6AE5505E
:10203800E150FCE1E250FAE100EE9EF02D0EEE6A6E
:10204800E806FDE1586A576A566A556A546A536A3F
:1020580059905992000121EF00F0D59C000ED76EDF
:10206800000ED66ED650D7CF09F00A6A09C00AF01A
:10207800096A0910576E0A50586EF294F28A840E53
:10208800076E220E086E20EC11F09F0ED56E12001E
:1020980007C009F008C00AF054EF10F0074A082AF0
:1020A80007C0D9FF08C0DAFFDF50D8A45EEF10F0F0
:1020B80060EF10F052EF10F00950075C076E0A50FD
:1020C8000858086E1200898C000E046E000E036E0C
:1020D800034A042A045009E1280E035CD8A077EFCC
:1020E80010F079EF10F06CEF10F0F90E026EC00EE0
:1020F800016E39EC11F0F294899C1200000E896E81
:10210800000E8A6E000E8B6EBF0E926EE50E936EF9
:102118008F0E946E0C0E0F013A6F310E396F2F0E21
:10212800386F000E616EF18E12009EAA9EEF10F0BD
:10213800A0EF10F099EF10F0000E0001AA6FABA20B
:10214800A8EF10F0AAEF10F0ACEF10F0AB98AB8846
:10215800AE501200810E0001876F000E886F000ECE
:10216800796F000E7A6F7FC07BF080C07CF0870E9D
:102178007D6F000E7E6F80EC0EF012000750090292
:10218800F3CF0BF0F4CF0CF007500A02F3500C26F3
:1021980008500902F3500C260BC007F00CC008F0D9
:1021A8001200700ED36E040ED26E400E9B6ED2AE2D
:1021B800E0EF10F0E2EF10F0DBEF10F012003EEC71
:1021C80011F012EC11F082EC10F0D5EC10F031ECBB
:1021D80010F02CEC0FF01200076E07C06FFFA4AED2
:1021E800F8EF10F0FAEF10F0F3EF10F0A49E6F5034
:1021F8001200076E9EA803EF11F005EF11F0FEEF35
:1022080010F007C0ADFF12009EBA0DEF11F010EFED
:1022180011F0010E11EF11F0000E1200400E6D6E5C
:10222800010E6C6E010E6E6E93926C9A120008503D
:10223800D76E07C0D6FF120007C0A8F008C0A9F0E3
:10224800120007C0A4F008C0A5F0120007C0A6F04D
:1022580008C0A7F0120007C0A2F008C0A3F012003F
:10226800086E0850FDEC10F012000250D76E01C045
:0E227800D6FF1200D09E12006C9A12001200C7
:10FB9400000140010020202020436F6E6E656374D5
:10FBA400206F7363696C6C6F73636F706520636837
:10FBB400616E6E656C203120746F2050494320685B
:10FBC40065616465722070696E2052423120287626
:10FBD4006572746963616C207363616C652032764D
:10FBE4002F646976290D0A0020202020436F6E6E51
:10FBF400656374206F7363696C6C6F73636F706596
:10FC0400206368616E6E656C203220746F205049E9
:10FC140043206865616465722070696E20524233C6
:10FC24002028766572746963616C207363616C6506
:10FC34002032762F646976290D0A000D0A2D2D2DA8
:10FC44002D2D2D2D2D2D2D2D2D2D2D2D2D2D2D2DE0
:10FC54002D2D2D2D2D2D2D2D2D2D2D2D2D2D2D2DD0
:10FC64002D2D2D2D2D2D2D2D2D2D2D2D2D2D0D0A03
:10FC7400002D2D2D2D2D2D2D2D2D2D2D2D2D2D2DDD
:10FC84002D53504920544553542D2D2D2D2D2D2DBC
:10FC94002D2D2D2D2D2D2D2D2D2D2D2D2D2D2D2D90
:10FCA4002D2D0D0A002D2D2D2D2D2D2D2D2D2D2DF0
:10FCB4002D2D2D5344204341524420544553545335
:10FCC4002D2D2D2D2D2D2D2D2D2D2D2D2D2D2D2D60
:10FCD4002D2D2D2D2D2D0D0A00202020205365744F
:10FCE4002074686520686F72697A6F6E74616C2025
:10FCF4007363616C6520746F203530306E732F64CC
:10FD040069760D0A00577269746520626C6F636BC3
:10FD1400206F662064656372656D656E746564202A
:10FD2400382D6269742076616C7565733A0D0A002A
:10FD3400723A2072656164206120626C6F636B208B
:10FD44006F662025642062797465732066726F6D16
:10FD540020534420636172640D0A00773A2077725D
:10FD6400697465206120626C6F636B206F66202567
:10FD74006420627974657320746F20534420636136
:10FD840072640D0A004E6F20636F6E666967757248
:10FD94006174696F6E206F6620646576656C6F7040
:10FDA4006D656E7420626F6172640D0A3E2000619D
:10FDB4002F412064656372656173652F696E637298
:10FDC4006561736520726561642061646472657342
:10FDD400730D0A00743A2073656E642061205465C3
:10FDE400737420636861726163746572206F7665F1
:10FDF40072205350490D0A00556E646572666C6F2B
:10FE040077656420746F2068696768206164647230
:10FE14006573730D0A0073656E743A202530327869
:10FE2400202072656365697665643A2025303278EE
:10FE34000D0A002020202048697420616E79206B0F
:10FE44006579207768656E2072656164790D0A00B2
:10FE5400426C6F636B204C656E67746820526573E7
:10FE6400706F6E73653A2025780D0A004F766572BF
:10FE7400666C6F77656420746F206C6F77206164A3
:10FE840064726573730D0A00434D44302C2052652F
:10FE940073657420526573706F6E73653A202578AC
:10FEA4000D0A002020202054726967676572206F54
:10FEB4006E206368616E6E656C20310D0A00434DDF
:10FEC40044312C20496E697420526573706F6E73CF
:10FED400653A2025780D0A00693A20496E697469EB
:10FEE400616C697A6520534420636172640D0A0071
:10FEF4007A3A20436C656172207468652074657277
:10FF04006D696E616C0D0A002020202053746174A9
:10FF140075733A2020202020253032780D0A005AAB
:10FF24003A2052657365742070726F636573736FE2
:10FF3400720D0A00446563726561736564206164CF
:10FF440064726573730D0A00496E6372656173654B
:10FF54006420616464726573730D0A005344206302
:10FF640061726420616464726573733A2020005383
:10FF74004420636172642074657374696E670D0A4A
:10FF840000556E6B6E6F776E206B65792025630D5F
:10FF94000A0020202020416464726573733A202093
:10FFA4002020005265616420626C6F636B3A200DFF
:10FFB4000A003F3A2068656C70206D656E750D0A05
:10FFC40000696E4C61622030390D0A004465762761
:10FFD40032310D0A006F3A096F6B0D0A006F3A2037
:10FFE4006B0D0A0025303278200025303478000D5E
:0BFFF4000A0A002563002E003A0000FE
:020000040020DA
:08000000FFFFFFFFFFFFFFFF00
:020000040030CA
:0E000000FF281F3CFFBF85FF0FC00FE00F4021
:00000001FF
