:020000040000FA
:040000001FEF00F0FE
:100008005982FACF05F0FBCF06F0F2AA0EEF00F006
:1000180010EF00F019EF00F0F2A415EF00F017EF61
:1000280000F019EF00F0CDEC10F006C0FBFF05C0A2
:10003800FAFF59921100E9EF10F0000E0001A36FCA
:10004800000EA46F000EA56F000EA66F000E9B6F2A
:10005800300E966FB6EC11F08A88000E086E000E0E
:10006800076EEEEC11F0F294F2A43DEF00F03FEFD2
:1000780000F038EF00F0740E076E220E086EF3ECF5
:1000880011F0F28EF28CC00E00017F6FFF0E806FB0
:1000980081EC11F05E0E00017F6FFF0E806F81EC26
:1000A80011F0CB0E00017F6FFF0E806F81EC11F015
:1000B800920E00017F6FFD0E806F81EC11F013EC42
:1000C80012F0000E1EEC0EF0DBEC11F00009D8B4B3
:1000D80070EF00F072EF00F068EF00F06CEC11F0D8
:1000E80000019C6F7DEF03F0D30E7F6FFC0E806FD5
:1000F80081EC11F04B0E00017F6FFF0E806F81ECD9
:1001080011F0EE0E00017F6FFF0E806FA5C081F029
:10011800A6C082F0836B846B81EC11F0FC0E0001A9
:100128007F6FFF0E806F81EC11F0EE0E00017F6F84
:10013800FF0E806FFF0EA315816FFF0EA415826F4F
:10014800000EA515836F000EA615846F81EC11F0C3
:10015800AE0E00017F6FFF0E806F81EC11F0D50E9F
:1001680000017F6FFC0E806F81EC11F0B10E000171
:100178007F6FFF0E806F81EC11F0DC0E00017F6F46
:10018800FF0E806F81EC11F00E0E00017F6FFF0EE5
:10019800806F81EC11F0F60E00017F6FFE0E806F0C
:1001A80081EC11F0D50E00017F6FFC0E806F81ECA1
:1001B80011F0DE0E00017F6FFE0E806F81EC11F0F2
:1001C800D50E00017F6FFC0E806F81EC11F00E0ED2
:1001D80000017F6FFE0E806F81EC11F0670E000149
:1001E8007F6FFD0E806F020E826F000E816F81ECB3
:1001F80011F09C0E00017F6FFC0E806F020E826F63
:10020800000E816F81EC11F0D50E00017F6FFC0E9E
:10021800806F81EC11F0090E00017F6FFD0E806F79
:10022800020E826F000E816F81EC11F03B0E00010F
:100238007F6FFD0E806F020E826F000E816F81EC62
:1002480011F0330E00017F6FFE0E806F020E826F79
:10025800000E816F81EC11F0D50E00017F6FFC0E4E
:10026800806F81EC11F068EF00F0D40E7F6FFF0E05
:10027800806F81EC11F068EF00F0000EA26F000EA5
:10028800A16FF50E7F6FFF0E806F81EC11F00001FA
:10029800A14BA22BA25109E1280EA15DD8A057EFCE
:1002A80001F059EF01F045EF01F0FF0068EF00F0B1
:1002B800000EA26F000EA16FF50E7F6FFF0E806F0C
:1002C80081EC11F00001A14BA22BA25109E1280EEB
:1002D800A15DD8A072EF01F074EF01F060EF01F0BA
:1002E80068EF00F013EC12F0000E1EEC0EF0010E99
:1002F8008DEC0BF068EF00F0610E9C19D8A487EF25
:1003080001F089EF01F0B3EF01F0000EA35F020ED8
:10031800A45B000EA55B000EA65B040EA65DD8A02C
:1003280098EF01F09AEF01F0ABEF01F0530E7F6FF9
:10033800FE0E806F81EC11F0000E0001A36FFE0E1F
:10034800A46FFF0EA56F030EA66FDBEF01F0230E5F
:100358007F6FFF0E806F81EC11F0DBEF01F0000E74
:10036800A327020EA423000EA523000EA623040E25
:10037800A65DD8A0C2EF01F0C4EF01F0D5EF01F0FF
:100388008D0E7F6FFE0E806F81EC11F0000E000164
:10039800A36F000EA46F000EA56F000EA66FDBEF13
:1003A80001F0370E7F6FFF0E806F81EC11F04B0E5E
:1003B80000017F6FFF0E806F81EC11F0EE0E0001DF
:1003C8007F6FFF0E806FA5C081F0A6C082F0836B9F
:1003D800846B81EC11F0FC0E00017F6FFF0E806FC3
:1003E80081EC11F0EE0E00017F6FFF0E806FFF0EA3
:1003F800A315816FFF0EA415826F000EA515836FDC
:10040800000EA615846F81EC11F0AE0E00017F6F0F
:10041800FF0E806F81EC11F068EF00F08B8AA3C0AB
:1004280008F0A4C009F0A5C00AF0A6C00BF0D50ECC
:100438000C6E020E0D6E74EC0EF08B9AA20E00017B
:100448007F6FFF0E806F81EC11F0810E00017F6FCE
:10045800FF0E806F81EC11F0EE0E00017F6FFF0E32
:10046800806FA5C081F0A6C082F0836B846B81EC9D
:1004780011F0FC0E00017F6FFF0E806F81EC11F010
:10048800EE0E00017F6FFF0E806FFF0EA315816FC8
:10049800FF0EA415826F000EA515836F000EA6151A
:1004A800846F81EC11F0AE0E00017F6FFF0E806F3C
:1004B80081EC11F0D50E0001896F020E8A6F06ECEF
:1004C80009F068EF00F0000E9B6FA3C097F0A4C07E
:1004D80098F0A5C099F0A6C09AF0430E7F6FFC0E65
:1004E800806F81EC11F0CCEF02F0000E0001A06FDC
:1004F800000E9F6F970E9B25F66EF76AF90EF7228E
:10050800F86A000EF822D50E9F25D96E020EA0219A
:10051800DA6E0800F5CFDFFF010E9B25076E086A2B
:10052800000E0822000E0A6E1A0E096EC6EC0DF0B7
:10053800075000019B6F9F4BA02B020EA05DD8A017
:10054800A8EF02F0AAEF02F07EEF02F097C008F0E1
:1005580098C009F099C00AF09AC00BF0D50E0C6E3D
:10056800020E0D6E0CEC0FF05DEC10F00001956FB3
:100578009529D8B4C2EF02F0C4EF02F0B8EF02F048
:10058800000E9727020E9823000E9923000E9A2337
:10059800DBEC11F00009D8B4D4EF02F0D6EF02F08A
:1005A80079EF02F06CEC11F0920E00017F6FFF0EF4
:1005B800806F81EC11F068EF00F0E50E7F6FFD0EA3
:1005C800806F020E826F000E816F81EC11F068EF70
:1005D80000F0BC0E7F6FFD0E806F020E826F000E62
:1005E800816F81EC11F068EF00F03B0E7F6FFD0E1C
:1005F800806F81EC11F068EF00F0B50E7F6FF90E97
:10060800806F81EC11F0A3C097F0A4C098F0A5C04A
:1006180099F0A6C09AF05DEF03F097C008F098C073
:1006280009F099C00AF09AC00BF0D50E0C6E020EB4
:100638000D6E74EC0EF0000E00019E6F000E9D6FA3
:100648009EBF2EEF03F0020E9E5DD8A02EEF03F0A2
:1006580030EF03F032EF03F054EF03F0E90E7F6F51
:10066800FF0E806FD50E9D25D96E020E9E21DA6E83
:10067800DF50936F9351816F826B81EC11F0DBEC4B
:1006880011F00009D8B44BEF03F04DEF03F04FEF32
:1006980003F054EF03F000019D4B9E2B24EF03F071
:1006A800000E00019727020E9823000E9923000ED2
:1006B8009A23DBEC11F00009D8B465EF03F067EF7B
:1006C80003F011EF03F06CEC11F0440E00017F6FA2
:1006D800FB0E806F81EC11F068EF00F0700E7F6FF9
:1006E800FF0E806F9CC081F0826B81EC11F068EF87
:1006F80000F09C51936F946B9451000AD8B487EF23
:1007080003F072EF03F093512B0AD8B4E1EF02F033
:10071800060AD8B4EDEF02F01C0AD8B467EF02F06D
:100728000E0AD8B478EF00F07E0AD8B480EF01F052
:10073800160AD8B4F9EF02F00D0AD8B441EF01F067
:100748003B0AD8B480EF01F0080AD8B476EF01F07C
:10075800060AD8B439EF01F01D0AD8B412EF02F036
:10076800010AD8B401EF03F0090AD8B45CEF01F02C
:1007780072EF03F01FEF00F04DC0D9FF4EC0DAFF53
:10078800DECFF6FFDDCFF7FFF86A0800F550250A3F
:10079800D8A4D1EF03F0D3EF03F010EF06F04DC06B
:1007A800D9FF4EC0DAFFDE2A000EDD22000E546E9D
:1007B800000E536E53C055F054C056F00001A9699D
:1007C800AA69000E756F000E746F32EF04F0558041
:1007D8004DC0D9FF4EC0DAFFDE2A000EDD2232EF0F
:1007E80004F05582ECEF03F05584ECEF03F05586E6
:1007F800ECEF03F05588ECEF03F0000E756F010E77
:10080800746F32EF04F04DC0D9FF4EC0DAFFDECF6F
:10081800F6FFDDCFF7FFF86A0800F550606F616BEF
:100828006151000AD8B41BEF04F001EF04F06051E5
:10083800200AD8B4FBEF03F0030AD8B4FEEF03F0A4
:10084800080AD8B4F8EF03F0060AD8B4EBEF03F0BF
:100858001D0AD8B4F5EF03F001EF04F074517511D7
:10086800D8B439EF04F03BEF04F007EF04F055A0DB
:1008780040EF04F042EF04F043EF04F055924DC00E
:10088800D9FF4EC0DAFFDECFF6FFDDCFF7FFF86AFB
:100898000800F5502A0AD8A454EF04F056EF04F0E3
:1008A8007FEF04F04DC0D9FF4EC0DAFFDE2A000EFC
:1008B800DD224FC0D9FF50C0DAFFDFCF60F0020E53
:1008C800DE26DFCF61F0000EDD2260C0D9FF61C0F7
:1008D800DAFFDECF53F0DDCF54F054BE78EF04F0EA
:1008E80076EF04F0C4EF04F05580536C541ED8B072
:1008F800542AC4EF04F04DC0D9FF4EC0DAFFDECF52
:100908000EF0DDCF0FF0FCEC09F00EC053F00FC075
:1009180054F096EF04F04DC0D9FF4EC0DAFFDE2A3E
:10092800000EDD22D00E0001606FFF0E616F4DC01A
:10093800D9FF4EC0DAFFDECFF6FFDDCFF7FFF86A4A
:100948000800F550626F636B605162276151632341
:1009580063510AE10A0E625DD8A0B5EF04F0B8EF62
:1009680004F0010EB9EF04F0000E766F776B765144
:100978007711D8A4C2EF04F0C4EF04F08FEF04F0AD
:100988004DC0D9FF4EC0DAFFDECFF6FFDDCFF7FF4F
:10099800F86A0800F550630AD8A4D5EF04F0D7EF39
:1009A80004F0FEEF04F04DC0D9FF4EC0DAFFDE2A96
:1009B800000EDD224FC0D9FF50C0DAFFDFCF60F054
:1009C800020EDE26DFCF61F0000EDD2260C0D9FF07
:1009D80061C0DAFFDF50786F4BC012F04CC013F0E3
:1009E80078C014F0FBEC0CF012C04BF013C04CF0C4
:1009F8002CEF06F04DC0D9FF4EC0DAFFDECFF6FF70
:100A0800DDCFF7FFF86A0800F550640AD8B40FEF95
:100A180005F011EF05F024EF05F04DC0D9FF4EC0E9
:100A2800DAFFDECFF6FFDDCFF7FFF86A0800F550F2
:100A3800690AD8A422EF05F024EF05F064EF05F069
:100A48004DC0D9FF4EC0DAFFDE2A000EDD224FC0AE
:100A5800D9FF50C0DAFFDFCF60F0020EDE26DFCF0D
:100A680061F0000EDD2260C0D9FF61C0DAFFDECF81
:100A780064F0DDCF65F0000E65BFFF0E666F676F2F
:100A8800686F696F6A6F6B6F4BC024F04CC025F0BC
:100A980064C026F065C027F066C028F067C029F05A
:100AA80068C02AF069C02BF06AC02CF06BC02DF02A
:100AB8002DEC06F024C04BF025C04CF02CEF06F0CE
:100AC8004DC0D9FF4EC0DAFFDECFF6FFDDCFF7FF0E
:100AD800F86A0800F550780AD8B475EF05F077EF92
:100AE80005F08AEF05F04DC0D9FF4EC0DAFFDECF22
:100AF800F6FFDDCFF7FFF86A0800F550580AD8A4CA
:100B080088EF05F08AEF05F0D9EF05F04DC0D9FF61
:100B18004EC0DAFFDECFF6FFDDCFF7FFF86A080038
:100B2800F5CF78F04DC0D9FF4EC0DAFFDE2A000EAF
:100B3800DD224FC0D9FF50C0DAFFDFCF60F0020ED0
:100B4800DE26DFCF61F0000EDD2260C0D9FF61C074
:100B5800DAFFDECF62F0DDCF63F062C06CF063C015
:100B68006DF06E6B6F6B706B716B726B736B4BC0F0
:100B780024F04CC025F06CC026F06DC027F06EC084
:100B880028F06FC029F070C02AF071C02BF072C035
:100B98002CF073C02DF078C02EF09CEC07F024C028
:100BA8004BF025C04CF02CEF06F04DC0D9FF4EC0DD
:100BB800DAFFDECFF6FFDDCFF7FFF86A0800F55061
:100BC800250AD8A4EAEF05F0ECEF05F003EF06F0EC
:100BD8004DC0D9FF4EC0DAFFDE2A000EDD22000E1E
:100BE8000A6E250E096E4BC00BF04CC00CF0C1EC20
:100BF8000EF0000E4C6E010E4B6E2CEF06F04DC041
:100C0800D9FF4EC0DAFFDE2A000EDD22000E4C6E40
:100C1800000E4B6E2CEF06F04DC0D9FF4EC0DAFF28
:100C2800DECFF6FFDDCFF7FFF86A0800F550096E52
:100C38000A6A4BC00BF04CC00CF0C1EC0EF04DC072
:100C4800D9FF4EC0DAFFDE2A000EDD22FDEF05F0E7
:100C5800120026C03EF027C03FF028C040F029C04F
:100C680041F02AC042F02BC043F02CC044F02DC004
:100C780045F045BE42EF06F045EF06F0010E46EF9F
:100C880006F0000E3C6E3D6A3C503D10D8B44FEF64
:100C980006F051EF06F061EF06F0451E441E431EB4
:100CA800421E411E401E3F1E3E6C000E3F22402247
:100CB800412242224322442245220001AABF67EF73
:100CC80006F069EF06F06AEF06F05592AABF77EFD3
:100CD80006F0AA5106E1A905D8B075EF06F077EF3E
:100CE80006F07DEF06F0000E396E010E386E81EFCA
:100CF80006F0A9C038F0AAC039F053C03AF054C081
:100D08003BF03C503D10D8A48CEF06F08EEF06F077
:100D180095EF06F055A493EF06F095EF06F098EFDF
:100D280006F03A06D8A03B06000E476E1F0E466E28
:100D3800000ED46F1CEF07F04606D8A04706B50E84
:100D48004624D96E000E4720DA6E3EC007F03FC039
:100D580008F040C009F041C00AF042C00BF043C09F
:100D68000CF044C00DF045C00EF00A0E0F6E000ED8
:100D7800106E000E116E000E126E000E136E000E35
:100D8800146E000E156E000E166E49EC0CF007C0BE
:100D98002EF008C02FF009C030F00AC031F00BC0A7
:100DA80032F00CC033F00DC034F00EC035F02EC058
:100DB80019F030C01AF01FEC10F01950300FDF6E28
:100DC8003806D8A039063A06D8A03B063EC007F038
:100DD8003FC008F040C009F041C00AF042C00BF023
:100DE80043C00CF044C00DF045C00EF00A0E0F6E63
:100DF800000E106E000E116E000E126E000E136EB5
:100E0800000E146E000E156E000E166EC9EC0AF078
:100E180007C03EF008C03FF009C040F00AC041F0EA
:100E28000BC042F00CC043F00DC044F00EC045F0BA
:100E380047BE27EF07F0475008E14604D8A027EF40
:100E480007F029EF07F059EF07F03E503F10401028
:100E580041104210431044104510D8A436EF07F053
:100E680038EF07F0A0EF06F039BE45EF07F039502C
:100E780006E13804D8B043EF07F045EF07F0A0EFDC
:100E880006F03BBE50EF07F03B5008E13A04D8A00B
:100E980050EF07F052EF07F059EF07F055B257EF50
:100EA80007F059EF07F0A0EF06F03C503D10D8A42A
:100EB80060EF07F062EF07F069EF07F055A467EFFE
:100EC80007F069EF07F087EF07F04606D8A0470656
:100ED8003C503D10D8A473EF07F075EF07F07BEF97
:100EE80007F0000E376E2B0E366E7FEF07F0000E00
:100EF800376E2D0E366EB50E4624D96E000E47207D
:100F0800DA6E36C0DFFF24C019F025C01AF0B50E1E
:100F180046241B6E000E47201C6E3AC01DF03BC0D5
:100F28001EF065EC0DF019C024F01AC025F012006F
:100F38000001AABFA2EF07F0A4EF07F0A5EF07F0A2
:100F48005592AABFB2EF07F0AA5106E1A905D8B099
:100F5800B0EF07F0B2EF07F0B8EF07F0000E3C6E05
:100F6800010E3B6EBCEF07F0A9C03BF0AAC03CF0F5
:100F780053C03DF054C03EF055A8C5EF07F0C7EF89
:100F880007F0CBEF07F0FE0E3D26FF0E3E2226C0EF
:100F98003FF027C040F028C041F029C042F02AC0E5
:100FA80043F02BC044F02CC045F02DC046F0000E95
:100FB800486E1F0E476E000ED46F96EF08F0470676
:100FC800D8A048060F0E3F14496E4A6A4ABEF6EF8B
:100FD80007F04A5009E10A0E495CD8A0F6EF07F07D
:100FE800F8EF07F000EF08F0570E4924496E000E9D
:100FF8004A204A6E06EF08F0300E4924496E000E6A
:101008004A204A6EBF0E2F6EFF0E306E2E50316E84
:10101800326A2F5031263050322232500AE11A0EED
:10102800315CD8A01AEF08F01DEF08F0010E1EEF92
:1010380008F0000E376E386A37503810D8B427EFEA
:1010480008F029EF08F059EF08F09F0E2F6EFF0EF9
:10105800306E200E4910316E000E4A10326E2F503D
:1010680031263050322232500AE11A0E315CD8A0B3
:1010780040EF08F043EF08F0010E44EF08F0000ECF
:10108800396E3A6A39503A10D8B44DEF08F04FEF3C
:1010980008F059EF08F049C00DF04AC00EF085EC91
:1010A8000FF00DC049F00EC04AF0B50E4724D96EB6
:1010B800000E4820DA6E49C0DFFF3B06D8A03C0688
:1010C8003D06D8A03E063FC02FF040C030F041C0DA
:1010D80031F042C032F043C033F044C034F045C070
:1010E80035F046C036F0050E83EF08F0D89036325A
:1010F8003532343233323232313230322F32E82E16
:101108007AEF08F02FC03FF030C040F031C041F016
:1011180032C042F033C043F034C044F035C045F02B
:1011280036C046F048BEA2EF08F0485009E1020E6A
:10113800475CD8A0A2EF08F0A4EF08F0D4EF08F0BD
:101148003F504010411042104310441045104610C3
:10115800D8A4B1EF08F0B3EF08F0E3EF07F03CBE16
:10116800C0EF08F03C5006E13B04D8B0BEEF08F0F1
:10117800C0EF08F0E3EF07F03EBECBEF08F03E50BB
:1011880008E13D04D8A0CBEF08F0CDEF08F0D4EF8C
:1011980008F055B2D2EF08F0D4EF08F0E3EF07F00B
:1011A80055A8D9EF08F0DBEF08F0F1EF08F0470693
:1011B800D8A04806B50E4724D96E000E4820DA6E2E
:1011C8002EC0DFFF4706D8A04806B50E4724D96EC3
:1011D800000E4820DA6E300EDF6E24C019F025C0EC
:1011E8001AF0B50E47241B6E000E48201C6E3DC039
:1011F8001DF03EC01EF065EC0DF019C024F01AC0B9
:1012080025F01200F30E00017F6FFF0E806F81EC56
:1012180011F0000E0001926F000E916F9151921122
:10122800D8B419EF09F01BEF09F030EF09F0070EF9
:1012380091158B6F000E92158C6F8B518C11D8A461
:1012480028EF09F02AEF09F030EF09F0900E7F6FD0
:10125800FF0E806F81EC11F0000191519211D8B40A
:1012680038EF09F03AEF09F093EF09F00F0E9115F6
:101278008B6F000E92158C6F8B518C11D8A447EF91
:1012880009F049EF09F093EF09F08F0E7F6FFF0E19
:10129800806F81EC11F0F00E000191258D6FFF0E2B
:1012A80092218E6F82EF09F08D518925D96E8E516A
:1012B8008A21DA6E200EDF6064EF09F066EF09F02C
:1012C8006EEF09F0FA0E7F6FFF0E806F81EC11F060
:1012D8007FEF09F0F70E7F6FFF0E806F8D51892524
:1012E800D96E8E518A21DA6EDF508B6F8B51816FE8
:1012F800826B81EC11F000018D4B8E2B91518D5D2D
:1013080092518E59D8A08BEF09F08DEF09F058EF64
:1013180009F0AE0E7F6FFF0E806F81EC11F0E30EC7
:1013280000017F6FFF0E806F91518925D96E925110
:101338008A21DA6EDF508B6F8B51816F826B81EC63
:1013480011F00001914B922B020E925DD8A0AFEFE5
:1013580009F0B1EF09F012EF09F08E0E7F6FFF0E62
:10136800806F81EC11F0F00E000191258F6FFF0E58
:101378009221906FEAEF09F08F518925D96E90512B
:101388008A21DA6E200EDF60CCEF09F0CEEF09F08B
:10139800D6EF09F0FA0E7F6FFF0E806F81EC11F027
:1013A800E7EF09F0F70E7F6FFF0E806F8F518925E9
:1013B800D96E90518A21DA6EDF508B6F8B51816F15
:1013C800826B81EC11F000018F4B902B91518F5D56
:1013D80092519059D8A0F3EF09F0F5EF09F0C0EF5A
:1013E80009F0AE0E7F6FFF0E806F81EC11F01200D6
:1013F800000E1C6E000E1B6E000E156E000E146E95
:1014080008EF0AF00E4A0F2A010E1A6E0EC0F6FFF8
:101418000FC0F7FFF86A0800F550200AD8B417EF94
:101428000AF019EF0AF037EF0AF0F70E106EFF0E08
:10143800116E0EC0F6FF0FC0F7FFF86A0800F550EE
:10144800126E136A1050122611501322135009E11C
:10145800050E125CD8A033EF0AF035EF0AF037EF2B
:101468000AF0000E1A6E1AC016F0176A16501710F6
:10147800D8A441EF0AF043EF0AF006EF0AF04DEF67
:101488000AF0000E156E010E146E0E4A0F2A84EF34
:101498000AF00EC0F6FF0FC0F7FFF86A0800F55013
:1014A800106E116A1150000AD8B45DEF0AF084EF8B
:1014B8000AF010502B0AD8B449EF0AF0060AD8B43B
:1014C80045EF0AF084EF0AF01BC007F01CC008F0D3
:1014D800000E0A6E0A0E096E95EC11F00EC0F6FFAA
:1014E8000FC0F7FFF86A0800F550075E000E085AAB
:1014F800300E07241B6E000E08201C6E49EF0AF000
:10150800D00E106EFF0E116E0EC0F6FF0FC0F7FF63
:10151800F86A0800F550126E136A1050122611501E
:10152800132213500AE10A0E125CD8A09EEF0AF0AB
:10153800A1EF0AF0010EA2EF0AF0000E186E196A68
:1015480018501910D8A4ABEF0AF0ADEF0AF068EF05
:101558000AF014501510D8A4B4EF0AF0B6EF0AF048
:10156800C4EF0AF01BC010F01CC011F0101E111EB1
:10157800104A112A10C00EF011C00FF0C8EF0AF07F
:101588001BC00EF01CC00FF01200000E186E16BE25
:10159800D2EF0AF0D0EF0AF0E4EF0AF0161E151E9B
:1015A800141E131E121E111E101E0F6C000E102288
:1015B800112212221322142215221622010E186E4D
:1015C8000EBEEBEF0AF0E9EF0AF0FDEF0AF00E1E8F
:1015D8000D1E0C1E0B1E0A1E091E081E076C000E8F
:1015E800082209220A220B220C220D220E22010EA9
:1015F800181A20EE19F0070EDE6AE806FDE20F5011
:101608001010111012101310141015101610D8B451
:1016180010EF0BF012EF0BF064EF0BF0010E176EEA
:1016280020EF0BF0D8900F361036113612361336DD
:10163800143615361636172A16AE25EF0BF027EF97
:101648000BF016EF0BF0D89019361A361B361C36ED
:101658001D361E361F3620360F50075C10500858AE
:101668001150095812500A5813500B5814500C585E
:1016780015500D5816500E58D8A045EF0BF047EFEF
:101688000BF058EF0BF00F50075E1050085A11502E
:10169800095A12500A5A13500B5A14500C5A155022
:1016A8000D5A16500E5A1980D89016321532143227
:1016B80013321232113210320F32172E27EF0BF07D
:1016C8001850D8B46AEF0BF06CEF0BF07CEF0BF00E
:1016D800201E1F1E1E1E1D1E1C1E1B1E1A1E196CE0
:1016E800000E1A221B221C221D221E221F2220222B
:1016F80019C007F01AC008F01BC009F01CC00AF096
:101708001DC00BF01EC00CF01FC00DF020C00EF065
:10171800120000018B6F000E00018A6F000E896FA6
:10172800FF0EC3EC11F00001894B8A2B8ABFA6EF8C
:101738000BF08A5109E10A0E895DD8A0A6EF0BF0DB
:10174800A8EF0BF094EF0BF08A98FF0EC3EC11F0A2
:10175800400EC3EC11F0000EC3EC11F0000EC3EC08
:1017680011F0000EC3EC11F0000EC3EC11F0950E51
:10177800C3EC11F0FF0EC3EC11F0FF0EC3EC11F037
:1017880000018C6F8A888B05D8A4CDEF0BF0CFEFC2
:101798000BF0D8EF0BF0A90E7F6FFE0E806F8CC098
:1017A80081F0826B81EC11F08A98FF0EC3EC11F086
:1017B800410EC3EC11F0000EC3EC11F0000EC3ECA7
:1017C80011F0000EC3EC11F0000EC3EC11F0FF0E87
:1017D800C3EC11F0FF0EC3EC11F0FF0EC3EC11F0D7
:1017E80000018C6F8A888C51D8A4FDEF0BF0FFEFB5
:1017F8000BF0D8EF0BF08B05D8A405EF0CF007EF32
:101808000CF010EF0CF0C40E7F6FFE0E806F8CC0D2
:1018180081F0826B81EC11F08A98FF0EC3EC11F015
:10182800500EC3EC11F0000EC3EC11F0000EC3EC27
:1018380011F0020EC3EC11F0000EC3EC11F0FF0E14
:10184800C3EC11F0FF0EC3EC11F0FF0EC3EC11F066
:1018580000018C6F8A888C29D8B435EF0CF037EFEB
:101868000CF010EF0CF08B05D8A43DEF0CF03FEF17
:101878000CF048EF0CF0710E7F6FFE0E806F8CC07D
:1018880081F0826B81EC11F01200000E186E0EBE12
:1018980052EF0CF050EF0CF064EF0CF00E1E0D1E22
:1018A8000C1E0B1E0A1E091E081E076C000E0822BD
:1018B80009220A220B220C220D220E22010E186E7A
:1018C80016BE6BEF0CF069EF0CF07BEF0CF0161EF8
:1018D800151E141E131E121E111E101E0F6C000E54
:1018E80010221122122213221422152216220F501E
:1018F8001010111012101310141015101610D8B45F
:1019080088EF0CF08AEF0CF0D2EF0CF0010E176E96
:1019180098EF0CF0D8900F36103611361236133671
:10192800143615361636172A16AE9DEF0CF09FEFB3
:101938000CF08EEF0CF00F50075C10500858115047
:10194800095812500A5813500B5814500C58155077
:101958000D5816500E58D8A0B4EF0CF0B6EF0CF096
:10196800C6EF0CF00F50075E1050085A1150095A74
:1019780012500A5A13500B5A14500C5A15500D5A3B
:1019880016500E5AD89016321532143213321232BB
:10199800113210320F32172E9FEF0CF01850D8B4B6
:1019A800D8EF0CF0DAEF0CF0EAEF0CF00E1E0D1E7B
:1019B8000C1E0B1E0A1E091E081E076C000E0822AC
:1019C80009220A220B220C220D220E2207C007F040
:1019D80008C008F009C009F00AC00AF00BC00BF0F3
:1019E8000CC00CF00DC00DF00EC00EF012005350DC
:1019F8005410D8A402EF0DF004EF0DF00AEF0DF02B
:101A080053C018F054C019F010EF0DF0FF0E532416
:101A1800186EFF0E5420196E55A015EF0DF017EF34
:101A28000DF020EF0DF014C009F00A6A12C00BF097
:101A380013C00CF0C1EC0EF019BE25EF0DF027EF26
:101A48000DF029EF0DF02DEF0DF0000E196E000EC0
:101A5800186E000E176E000E166E3FEF0DF0000E9A
:101A68000A6E200E096E12C00BF013C00CF0C1EC08
:101A78000EF0164A172A1850165C1750800A156E71
:101A88001950800A1558D8A04CEF0DF04EEF0DF004
:101A980033EF0DF055B053EF0DF055EF0DF05EEF4D
:101AA8000DF014C009F00A6A12C00BF013C00CF054
:101AB800C1EC0EF0010E1624126E000E1720136EE4
:101AC800120055A06AEF0DF06CEF0DF076EF0DF0F7
:101AD8001BC012F01CC013F019C014F01AC015F086
:101AE800DDEC0FF01EBE7BEF0DF07DEF0DF083EF08
:101AF8000DF01DC022F01EC023F087EF0DF0000E80
:101B0800236E000E226E000E216E000E206E99EFDD
:101B18000DF0000E0A6E200E096E19C00BF01AC0E7
:101B28000CF0C1EC0EF0204A212A2250205C2150F2
:101B3800800A1F6E2350800A1F58D8A0A6EF0DF008
:101B4800A8EF0DF08DEF0DF055B0ADEF0DF0AFEF44
:101B58000DF0B9EF0DF01BC012F01CC013F019C046
:101B680014F01AC015F0DDEC0FF01BC007F01CC014
:101B780008F01FEC11F022500724196E235008209A
:101B88001A6E1200000E0C6E08BECFEF0DF0CDEFEE
:101B98000DF0D5EF0DF0076C081ED8B0082A010E1D
:101BA8000C6E0ABEDCEF0DF0DAEF0DF0E0EF0DF091
:101BB800096C0A1ED8B00A2A09500A10D8B4E7EFEF
:101BC8000DF0E9EF0DF00DEF0EF0010E0B6EF1EFD9
:101BD8000DF0D89009360A360B2A0AAEF6EF0DF04A
:101BE800F8EF0DF0EDEF0DF00950075C0A500858BA
:101BF800D8A001EF0EF003EF0EF007EF0EF009503A
:101C0800075E0A50085AD8900A3209320B2EF8EFAC
:101C18000DF00C50D8B413EF0EF015EF0EF019EFCD
:101C28000EF0076C081ED8B0082A07C007F008C0D5
:101C380008F01200086E6CBA24EF0EF026EF0EF0D2
:101C480073EF0EF00850040D010EF326000EF42277
:101C5800B10EF324F66EF90EF420F76EF86A000E52
:101C6800F8220800F5CF6DFF0850040DB10EF324DB
:101C7800F66EF90EF420F76EF86A000EF8220800E6
:101C8800F5CF6CFF000E6B6E0850040D020EF326A4
:101C9800000EF422B10EF324F66EF90EF420F76E5E
:101CA800F86A000EF8220800F5CF6EFF0850040D00
:101CB800030EF326000EF422B10EF324F66EF90E8D
:101CC800F420F76EF86A000EF8220800F5CF07F046
:101CD800074693500718FD0B0718936E6C8A12007D
:101CE8008A98FF0EC3EC11F0510EC3EC11F00B50A3
:101CF800C3EC11F00A50C3EC11F00950C3EC11F019
:101D08000850C3EC11F0FF0EC3EC11F0FF0EC3EC4A
:101D180011F0FF0AD8B493EF0EF095EF0EF08AEFAA
:101D28000EF0FF0EC3EC11F0FF0AD8B49EEF0EF0D0
:101D3800A0EF0EF095EF0EF0000E0F6E000E0E6E77
:101D48000E500C24D96E0F500D20DA6EFF0EC3EC26
:101D580011F0DF6E0E4A0F2A020E0F5CD8A0B7EF03
:101D68000EF0B9EF0EF0A4EF0EF0FF0EC3EC11F079
:101D7800FF0EC3EC11F08A8812000B500C10D8B477
:101D8800C8EF0EF0CAEF0EF0D3EF0EF00B500C10A8
:101D9800D8A4D1EF0EF0D3EF0EF0D8EF0EF0095023
:101DA80007EC12F00BEF0FF020EE04F00B50D926E1
:101DB8000C50DA22DE50DE10D8B4E5EF0EF0E7EF73
:101DC8000EF002EF0FF020EE04F00B50D9260C5065
:101DD800DA2210EE02F00B50E1260C50E222DE501F
:101DE800E65CE650800A116EDE50800A1158D8B0C1
:101DF80000EF0FF002EF0FF00BEF0FF020EE02F004
:101E08000B50D9260C50DA22DE2A000EDD221200F1
:101E18008A98FF0EC3EC11F0580EC3EC11F00B506A
:101E2800C3EC11F00A50C3EC11F00950C3EC11F0E7
:101E38000850C3EC11F0FF0EC3EC11F0FF0EC3EC19
:101E480011F0FF0AD8B42BEF0FF02DEF0FF022EFAF
:101E58000FF0FF0EC3EC11F0FF0EC3EC11F0FF0EF4
:101E6800C3EC11F0FE0EC3EC11F0000E0F6E000E65
:101E78000E6E0E500C24D96E0F500D20DA6EDF5006
:101E8800C3EC11F00E4A0F2A020E0F5CD8A04FEFD8
:101E98000FF051EF0FF03DEF0FF08A8812007BC072
:101EA80051F07CC052F0000E0001A86F000EA76F21
:101EB80071EF0FF079C04BF07AC04CF0510E4D6EB7
:101EC800000E4E6E7DC04FF07EC050F0C0EC03F0A7
:101ED8004B500001A7274C50A82351C0F6FF52C011
:101EE800F7FFF86A0800F5500009D8A47EEF0FF054
:101EF80080EF0FF05EEF0FF0A7C079F0A8C07AF07E
:101F080012009F0E0F6EFF0E106E0DC011F00EC066
:101F180012F00F5011261050122212500AE11A0E18
:101F2800115CD8A09AEF0FF09DEF0FF0010E9EEF15
:101F38000FF0000E136E146A13501410D8B4A7EFE4
:101F48000FF0A9EF0FF0AFEF0FF05F0E0D140D6E4D
:101F58000E6AB3EF0FF00DC00DF00EC00EF01200B8
:101F6800010E0D6E200E07180810D8B4BEEF0FF042
:101F7800C0EF0FF0D9EF0FF0F70E096EFF0E0A6EE3
:101F880007C00BF008C00CF009500B260A500C22B1
:101F98000C5009E1050E0B5CD8A0D5EF0FF0D7EF78
:101FA8000FF0D9EF0FF0000E0D6E0DC007F0086AA4
:101FB8001200000E186E000E176EEEEF0FF016C02E
:101FC80009F00A6A14C00BF015C00CF0C1EC0EF051
:101FD800174A182A17501224D96E18501320DA6E8F
:101FE800DF50166E1650D8A4FCEF0FF0FEEF0FF07E
:101FF800E3EF0FF01200080EB86E900EAB6E240ED1
:10200800AC6E820EAF6E060EB06E000E076E000E3E
:10201800086EFDEC11F0000E076E000E086EF8EC6D
:1020280011F0000E076E000E086E02EC12F0000EA2
:102038000001B36F12001ABE2CEF10F01A5006E11F
:102048001904D8B02AEF10F02CEF10F03AEF10F086
:1020580019C01BF01AC01CF01B1E1C1E1B4A1C2A90
:102068001BC019F01CC01AF03EEF10F019C019F08F
:102078001AC01AF012009F0E096EFF0E0A6E200E8B
:1020880007100B6E000E08100C6E09500B260A5034
:102098000C220C500AE11A0E0B5CD8A056EF10F077
:1020A80059EF10F0010E5AEF10F0000E076E086A93
:1020B80012008A980D0EC3EC11F0086E8A88082861
:1020C800D8A469EF10F06BEF10F06EEF10F0FF0E70
:1020D80078EF10F0FF0EC3EC11F0FF0EC3EC11F017
:1020E800FF0EC3EC11F0085012009F0E096EFF0E90
:1020F8000A6E07C00BF008C00CF009500B260A50F6
:102108000C220C500AE11A0E0B5CD8A08EEF10F0CE
:1021180091EF10F0010E92EF10F0000E076E086AB2
:102128001200BF0E096EFF0E0A6E07C00BF008C042
:102138000CF009500B260A500C220C500AE11A0E1A
:102148000B5CD8A0AAEF10F0ADEF10F0010EAEEFC7
:1021580010F0000E076E086A1200D00E096EFF0E0E
:102168000A6E07C00BF008C00CF009500B260A5085
:102178000C220C500AE10A0E0B5CD8A0C6EF10F036
:10218800C9EF10F0010ECAEF10F0000E076E086AD2
:102198001200F2945850D76E57C0D6FF0001B151C3
:1021A800B211D8B4DAEF10F0DCEF10F0E8EF10F06D
:1021B80002D8E8EF10F00500FA6EB151FD6EB25189
:1021C800FE6EFF6AFA501200120000EED5F014EE0F
:1021D80000F0EE6AE550E150FCE1E250FAE100EE71
:1021E800A7F02E0EEE6AE806FDE1586A576A566AAD
:1021F800556A546A536A59905992000121EF00F0C8
:10220800D59C000ED76E000ED66ED650D7CF09F0EB
:102218000A6A09C00AF0096A0910576E0A50586E0E
:10222800F294F28A2A0E076E240E086EF3EC11F06F
:102238009F0ED56E120007C009F008C00AF027EFFC
:1022480011F0074A082A07C0D9FF08C0DAFFDF5093
:10225800D8A431EF11F033EF11F025EF11F0095048
:10226800075C076E0A500858086E1200898C000E29
:10227800046E000E036E034A042A045009E1280E76
:10228800035CD8A04AEF11F04CEF11F03FEF11F0CA
:10229800F90E026EC00E016E0CEC12F0F294899CDD
:1022A8001200000E896E000E8A6E000E8B6EBF0E35
:1022B800926EE50E936E8F0E946E0C0E0F013A6FB0
:1022C800310E396F2F0E386F000E616EF18E1200CD
:1022D8009EAA71EF11F073EF11F06CEF11F0000E80
:1022E8000001B36FABA27BEF11F07DEF11F07FEF30
:1022F80011F0AB98AB88AE501200810E0001876FC9
:10230800000E886F000E796F000E7A6F7FC07BF029
:1023180080C07CF0870E7D6F000E7E6F53EC0FF04F
:10232800120007500902F3CF0BF0F4CF0CF007505E
:102338000A02F3500C2608500902F3500C260BC071
:1023480007F00CC008F01200700ED36E040ED26EA7
:10235800400E9B6ED2AEB3EF11F0B5EF11F0AEEFB9
:1023680011F0120011EC12F0E5EC11F055EC11F03F
:10237800A8EC11F004EC11F0FFEC0FF01200076E5E
:1023880007C06FFFA4AECBEF11F0CDEF11F0C6EF91
:1023980011F0A49E6F501200076E9EA8D6EF11F0A0
:1023A800D8EF11F0D1EF11F007C0ADFF12009EBABF
:1023B800E0EF11F0E3EF11F0010EE4EF11F0000E81
:1023C8001200400E6D6E010E6C6E010E6E6E9392D1
:1023D8006C9A12000850D76E07C0D6FF120007C0CB
:1023E800B1F008C0B2F0120007C0ADF008C0AEF0FE
:1023F800120007C0AFF008C0B0F0120007C0ABF081
:1024080008C0ACF01200086E0850D0EC11F01200B1
:102418000250D76E01C0D6FF1200D09E12006C9AEF
:04242800120012008C
:10F9960000809FBBD5E9F8FFFFF8E9D5BB9F8061E2
:10F9A600452B1708010108172B4561014001000D81
:10F9B6000A596F75206D6179207465726D696E6183
:10F9C60074652073706F6F6C696E67206174206157
:10F9D6006E7974696D6520776974682061206B653E
:10F9E6007970726573732E0D0A546F2073706F6F82
:10F9F6006C207465726D696E616C20636F6E7465E0
:10FA06006E747320696E746F20612066696C652060
:10FA1600666F6C6C6F7720746865736520696E73AA
:10FA26007472756374696F6E733A0D0A0D0A5269C2
:10FA3600676874206D6F75736520636C69636B20EE
:10FA46006F6E20746865207570706572206C6566CF
:10FA560074206F6620746865205075545459207759
:10FA6600696E646F770D0A53656C6563743A20207E
:10FA76002020204368616E67652073657474696E23
:10FA860067732E2E2E0D0A53656C6563743A20201B
:10FA96002020204C6F6767696E670D0A53656C6599
:10FAA60063743A202020202053657373696F6E209B
:10FAB6006C6F6767696E673A20416C6C207365737B
:10FAC60073696F6E206F75747075740D0A4C6F676D
:10FAD6002066696C65206E616D653A202042726F02
:10FAE60077736520616E642070726F766964652035
:10FAF60061202E63737620657874656E73696F6E08
:10FB060020746F20796F75722066696C65206E614E
:10FB16006D650D0A53656C6563743A2020202020BC
:10FB26004170706C790D0A507265737320616E793D
:10FB3600206B657920746F20737461727400537042
:10FB46006F6F6C656420353132206F7574206F6677
:10FB5600207468652035313220626C6F636B732EBA
:10FB6600200D0A546F20636C6F73652074686520DE
:10FB760066696C6520666F6C6C6F77207468657358
:10FB86006520696E737472756374696F6E733A205B
:10FB96000D0A200D0A5269676874206D6F757365CA
:10FBA60020636C69636B206F6E20746865207570C6
:10FBB600706572206C656674206F662074686520B7
:10FBC60050755454592077696E646F77200D0A5327
:10FBD600656C6563743A20202020204368616E6757
:10FBE600652073657474696E67732E2E2E200D0A58
:10FBF60053656C6563743A20202020204C6F67673C
:10FC0600696E67200D0A53656C6563743A2020207F
:10FC1600202053657373696F6E20206C6F67676968
:10FC26006E673A204E6F6E65200D0A53656C6563EC
:10FC3600743A20202020204170706C790057726938
:10FC460074696E672073696E6520776176652074C6
:10FC56006F206D656D6F72792C2073746172746993
:10FC66006E672077697468207468652063757272A0
:10FC7600656E7420616464726573732E20507265BC
:10FC8600737320616E79206B657920746F207374AD
:10FC96006F702E0D0A00313A207772697465206103
:10FCA60020706572666563742032362076616C75E5
:10FCB600652073696E65207761766520746F2074A0
:10FCC600686520534420636172640D0A000D0A2D95
:10FCD6002D2D2D2D2D2D2D2D2D2D2D2D2D2D2D2D4E
:10FCE6002D2D2D2D2D2D2D2D2D2D2D2D2D2D2D2D3E
:10FCF6002D2D2D2D2D2D2D2D2D2D2D2D2D2D2D2D2E
:10FD06000D0A002B2F2D3A20496E637265617365CB
:10FD16002F4465637265617365207468652073613D
:10FD26006D706C65207261746520627920313020B7
:10FD360075730D0A00573A205772697465206D690C
:10FD460063726F70686F6E65203D3E20534420637A
:10FD560061726420617420313630302075730D0A6B
:10FD660000723A2072656164206120626C6F636B79
:10FD7600206F662025642062797465732066726F31
:10FD86006D20534420636172640D0A004E6F206338
:10FD96006F6E66696775726174696F6E206F662033
:10FDA600646576656C6F706D656E7420626F6172E6
:10FDB600640D0A3E20002B2F2D3A204465637265A0
:10FDC600617365207468652073616D706C6520725F
:10FDD6006174652062792031302075730D0A002B1D
:10FDE6002F2D3A20496E63726561736520746865CC
:10FDF6002073616D706C6520726174652062792074
:10FE060031302075730D0A00612F412064656372DD
:10FE1600656173652F696E637265617365207265CE
:10FE2600616420616464726573730D0A00733A201D
:10FE360073706F6F6C206D656D6F727920746F20B3
:10FE460061206373762066696C650D0A00556E64E1
:10FE56006572666C6F77656420746F206869676881
:10FE660020616464726573730D0A00426C6F636B84
:10FE7600204C656E67746820526573706F6E73658B
:10FE86003A2025780D0A004F766572666C6F7765A5
:10FE96006420746F206C6F7720616464726573737D
:10FEA6000D0A00434D44302C205265736574205270
:10FEB6006573706F6E73653A2025780D0A00434DA1
:10FEC60044312C20496E697420526573706F6E73CD
:10FED600653A2025780D0A00693A20496E697469E9
:10FEE600616C697A6520534420636172640D0A006F
:10FEF6007A3A20436C656172207468652074657275
:10FF06006D696E616C0D0A005A3A2052657365740C
:10FF16002070726F636573736F720D0A00446563B8
:10FF260072656173656420616464726573730D0A3A
:10FF360000496E637265617365642061646472650D
:10FF460073730D0A00534420636172642061646414
:10FF5600726573733A2020005344206361726420F3
:10FF660074657374696E670D0A00556E6B6E6F77F4
:10FF76006E206B65792025630D0A00202020204124
:10FF86006464726573733A20202020005772697486
:10FF9600652073746F707065640D0A005265616444
:10FFA60020626C6F636B3A200D0A003F3A20686549
:10FFB6006C70206D656E750D0A00696E4C6162206D
:10FFC60030390D0A004465762732310D0A006F3A42
:10FFD600096F6B0D0A006F3A206B0D0A002530324F
:10FFE60078200025640D0A0025303478000D0A0AB1
:09FFF600002563002E003A000012
:020000040020DA
:08000000FFFFFFFFFFFFFFFF00
:020000040030CA
:0E000000FF281F3CFFBF85FF0FC00FE00F4021
:00000001FF
