:020000040000FA
:0400000027EF00F0F6
:100008004E82FACF0EF0FBCF0FF0D9CF10F0DACF37
:1000180011F0F2AA12EF00F014EF00F01DEF00F05B
:10002800F2A419EF00F01BEF00F01DEF00F092ECC6
:1000380014F011C0DAFF10C0D9FF0FC0FBFF0EC0CB
:10004800FAFF4E92110046EF13F0000E0001C46F44
:10005800000EC56F000EC66F000EC76F000EB86F9A
:10006800300EB76FFFEC14F08A88000E136E000E86
:10007800126E61EC15F0F294F2A445EF00F047EF30
:1000880000F040EF00F0CE0E126E200E136E66ECFC
:1000980015F0F28EF28CC00E00019F6FFF0EA06F5C
:1000A800C4EC14F04C0E00019F6FFF0EA06FC4EC5F
:1000B80014F0CB0E00019F6FFF0EA06FC4EC14F07C
:1000C8009D0E00019F6FFD0EA06FC4EC14F086EC2E
:1000D80015F0000E87EC11F0C282C2B276EF00F084
:1000E80078EF00F071EF00F04EEC15F00009D8B48D
:1000F80080EF00F082EF00F078EF00F0D8EC14F019
:100108000001B96F42EF04F0DE0E9F6FFC0EA06F86
:10011800C4EC14F0390E00019F6FFF0EA06FC4EC01
:1001280014F0EE0E00019F6FFF0EA06FC6C0A1F085
:10013800C7C0A2F0A36BA46BC4EC14F0FC0E0001C2
:100148009F6FFF0EA06FC4EC14F0EE0E00019F6FBE
:10015800FF0EA06FFF0EC415A16FFF0EC515A26F8D
:10016800000EC615A36F000EC715A46FC4EC14F0DB
:10017800AE0E00019F6FFF0EA06FC4EC14F0E00EEE
:1001880000019F6FFC0EA06FC4EC14F0B10E0001CB
:100198009F6FFF0EA06FC4EC14F0DC0E00019F6F80
:1001A800FF0EA06FC4EC14F0FC0E00019F6FFE0E52
:1001B800A06FC4EC14F0E40E00019F6FFE0EA06F58
:1001C800C4EC14F0E00E00019F6FFC0EA06FC4ECAD
:1001D80014F0B40E00019F6FFE0EA06FC4EC14F073
:1001E800E00E00019F6FFC0EA06FC4EC14F0C70E68
:1001F80000019F6FFD0EA06FC4EC14F0720E000199
:100208009F6FFD0EA06F020EA26F000EA16FC4ECCF
:1002180014F0A70E00019F6FFC0EA06F020EA26FD4
:10022800000EA16FC4EC14F0E00E00019F6FFC0EED
:10023800A06FC4EC14F0140E00019F6FFD0EA06FA8
:10024800020EA26F000EA16FC4EC14F0460E00015E
:100258009F6FFD0EA06F020EA26F000EA16FC4EC7F
:1002680014F0EC0E00019F6FFD0EA06F020EA26F3E
:10027800000EA16FC4EC14F0E00E00019F6FFC0E9D
:10028800A06FC4EC14F078EF00F0D40E9F6FFF0E4F
:10029800A06FC4EC14F078EF00F0000EBF6F000EF2
:1002A800BE6FF50E9F6FFF0EA06FC4EC14F0000137
:1002B800BE4BBF2BBF5109E1280EBE5DD8A067EF2A
:1002C80001F069EF01F055EF01F0FF0078EF00F061
:1002D800000EBF6F000EBE6FF50E9F6FFF0EA06F72
:1002E800C4EC14F00001BE4BBF2BBF5109E1280E2E
:1002F800BE5DD8A082EF01F084EF01F070EF01F04D
:1003080078EF00F086EC15F0000E87EC11F0010E86
:10031800AFEC0DF078EF00F0610EB919D8A497EFA3
:1003280001F099EF01F0C3EF01F0000EC45F020E77
:10033800C55B000EC65B000EC75B040EC75DD8A088
:10034800A8EF01F0AAEF01F0BBEF01F00C0E9F6FD0
:10035800FE0EA06FC4EC14F0000E0001C46FFE0E78
:10036800C56FFF0EC66F030EC76FEBEF01F0110EDE
:100378009F6FFF0EA06FC4EC14F0EBEF01F0000EBE
:10038800C427020EC523000EC623000EC723040E81
:10039800C75DD8A0D2EF01F0D4EF01F0E5EF01F08E
:1003A800630E9F6FFE0EA06FC4EC14F0000E0001E8
:1003B800C46F000EC56F000EC66F000EC76FEBEF5F
:1003C80001F0250E9F6FFF0EA06FC4EC14F0390EDC
:1003D80000019F6FFF0EA06FC4EC14F0EE0E000139
:1003E8009F6FFF0EA06FC6C0A1F0C7C0A2F0A36B9D
:1003F800A46BC4EC14F0FC0E00019F6FFF0EA06FFD
:10040800C4EC14F0EE0E00019F6FFF0EA06FFF0EFC
:10041800C415A16FFF0EC515A26F000EC615A36FF8
:10042800000EC715A46FC4EC14F0AE0E00019F6F48
:10043800FF0EA06FC4EC14F078EF00F08B8AC4C0F4
:1004480013F0C5C014F0C6C015F0C7C016F0F50EFD
:10045800176E020E186EDDEC11F08B9AA20E0001D9
:100468009F6FFF0EA06FC4EC14F0810E00019F6F08
:10047800FF0EA06FC4EC14F0EE0E00019F6FFF0E8C
:10048800A06FC6C0A1F0C7C0A2F0A36BA46BC4EC58
:1004980014F0FC0E00019F6FFF0EA06FC4EC14F067
:1004A800EE0E00019F6FFF0EA06FFF0EC415A16F27
:1004B800FF0EC515A26F000EC615A36F000EC71557
:1004C800A46FC4EC14F0AE0E00019F6FFF0EA06F76
:1004D800C4EC14F0F50E0001A96F020EAA6F28EC07
:1004E8000BF078EF00F0000EB86FC4C0C0F0C5C0C4
:1004F800C1F0C6C0C2F0C7C0C3F0010E9F6FFC0EAA
:10050800A06FC4EC14F0DEEF02F0000E0001BD6F26
:10051800000EBC6F550EB825F66EF76AF90EF72275
:10052800F86A000EF822F50EBC25D96E020EBD2120
:10053800DA6E0800F5CFDFFF010EB825126E136AD8
:10054800000E1322000E156E1A0E146E2FEC11F009
:1005580012500001B86FBC4BBD2B020EBD5DD8A078
:10056800B8EF02F0BAEF02F08EEF02F0C0C013F05D
:10057800C1C014F0C2C015F0C3C016F0F50E176E56
:10058800020E186E75EC12F0ECEC13F00001B66F69
:10059800B629D8B4D2EF02F0D4EF02F0C8EF02F0D7
:1005A80000F0000E0001C027020EC123000EC22376
:1005B800000EC3234EEC15F00009D8B4E6EF02F0A4
:1005C800E8EF02F089EF02F0D8EC14F0920E000187
:1005D8009F6FFF0EA06FC4EC14F078EF00F0A00E30
:1005E800F327000EF4232A0E9F6FFE0EA06FF3C0B0
:1005F800B3F0F4C0B4F0040EB56FD890B433B3338D
:10060800B52F01EF03F0B3C0A1F0B4C0A2F0C4EC61
:1006180014F078EF00F0A00EF35F000EF45B400ECC
:10062800F35D010EF459D8B01CEF03F01EEF03F090
:1006380022EF03F0010EF46F400EF36F2A0E9F6F46
:10064800FE0EA06FF3C0B3F0F4C0B4F0040EB56FA3
:10065800D890B433B333B52F2CEF03F0B3C0A1F067
:10066800B4C0A2F0C4EC14F078EF00F05A0E9F6FFB
:10067800FC0EA06FC4EC14F0C4C0C0F0C5C0C1F03B
:10068800C6C0C2F0C7C0C3F0000E456E000E446E6F
:100698004EEC15F00009D8B454EF03F056EF03F010
:1006A8004CEF03F05E0E00019F6FFF0EA06FC4ECCD
:1006B80014F0D8EC14F0010E0001D26F010E4C6E4C
:1006C800ADEF03F00001D105D8A46DEF03F06FEF93
:1006D80003F08AEF03F0C0C013F0C1C014F0C2C029
:1006E80015F0C3C016F0F50E176E020E186E75ECF5
:1006F80012F0000E0001C027020EC123000EC22313
:10070800000EC323000ED16F020E4C6ED005D8A484
:1007180090EF03F092EF03F0ADEF03F0C0C013F0D9
:10072800C1C014F0C2C015F0C3C016F0F50E176EA4
:10073800000E186E75EC12F0000E0001C027020EB4
:10074800C123000EC223000EC323000ED06F62EF38
:1007580003F04EEC15F00009D8B4B5EF03F0B7EF8D
:1007680003F066EF03F0D8EC14F0000E0001D26F2E
:10077800000E4C6ECC0E9F6FFE0EA06FC4EC14F0F2
:1007880078EF00F0730E9F6FF90EA06FC4EC14F0B1
:10079800C4C0C0F0C5C0C1F0C6C0C2F0C7C0C3F075
:1007A80022EF04F0C0C013F0C1C014F0C2C015F0AD
:1007B800C3C016F0F50E176E020E186EDDEC11F0C0
:1007C800000E0001BB6F000EBA6FBBBFF3EF03F062
:1007D800020EBB5DD8A0F3EF03F0F5EF03F0F7EFDF
:1007E80003F019EF04F0E90E9F6FFF0EA06FF50EEE
:1007F800BA25D96E020EBB21DA6EDF50B36FB35142
:10080800A16FA26BC4EC14F04EEC15F00009D8B43B
:1008180010EF04F012EF04F014EF04F019EF04F0F5
:100828000001BA4BBB2BE9EF03F0000E0001C02713
:10083800020EC123000EC223000EC3234EEC15F096
:100848000009D8B42AEF04F02CEF04F0D6EF03F037
:10085800D8EC14F0020E00019F6FFB0EA06FC4ECE1
:1008680014F078EF00F0700E9F6FFF0EA06FB9C004
:10087800A1F0A26BC4EC14F078EF00F0B951B36F9B
:10088800B46BB451000AD8B44CEF04F037EF04F05D
:10089800B3512B0AD8B4F3EF02F0060AD8B40FEF1D
:1008A80003F01C0AD8B477EF02F00E0AD8B488EF28
:1008B80000F07E0AD8B490EF01F0160AD8B43AEFE7
:1008C80003F00D0AD8B451EF01F03B0AD8B490EF09
:1008D80001F0080AD8B486EF01F0060AD8B449EF47
:1008E80001F01D0AD8B422EF02F0010AD8B4C6EF0D
:1008F80003F0090AD8B46CEF01F037EF04F027EFE2
:1009080000F07EC0D9FF7FC0DAFFDECFF6FFDDCF73
:10091800F7FFF86A0800F550250AD8A496EF04F006
:1009280098EF04F02AEF07F07EC0D9FF7FC0DAFF06
:10093800DE2A000EDD22000E3F6E000E3E6E3EC027
:1009480042F03FC043F040684168000E00018B6FE1
:10095800000E8A6FF7EF04F042807EC0D9FF7FC097
:10096800DAFFDE2A000EDD22F7EF04F04282B1EF53
:1009780004F04284B1EF04F04286B1EF04F04288FB
:10098800B1EF04F0000E8B6F010E8A6FF7EF04F0E1
:100998007EC0D9FF7FC0DAFFDECFF6FFDDCFF7FFDD
:1009A800F86A0800F5503A6E3B6A3B50000AD8B422
:1009B800E0EF04F0C6EF04F03A50200AD8B4C0EFD4
:1009C80004F0030AD8B4C3EF04F0080AD8B4BDEFA2
:1009D80004F0060AD8B4B0EF04F01D0AD8B4BAEF90
:1009E80004F0C6EF04F08A518B11D8B4FEEF04F07E
:1009F80000EF05F0CCEF04F042A005EF05F007EF9B
:100A080005F008EF05F042927EC0D9FF7FC0DAFFFB
:100A1800DECFF6FFDDCFF7FFF86A0800F5502A0AA7
:100A2800D8A419EF05F01BEF05F044EF05F07EC0E0
:100A3800D9FF7FC0DAFFDE2A000EDD2280C0D9FF91
:100A480081C0DAFFDFCF3AF0020EDE26DFCF3BF0BF
:100A5800000EDD223AC0D9FF3BC0DAFFDECF3EF000
:100A6800DDCF3FF03FBE3DEF05F03BEF05F089EFEE
:100A780005F042803E6C3F1ED8B03F2A89EF05F052
:100A88007EC0D9FF7FC0DAFFDECF19F0DDCF1AF0C4
:100A98001EEC0CF019C03EF01AC03FF05BEF05F0F9
:100AA8007EC0D9FF7FC0DAFFDE2A000EDD22D00E1D
:100AB8003A6EFF0E3B6E7EC0D9FF7FC0DAFFDECFF5
:100AC800F6FFDDCFF7FFF86A0800F5503C6E3D6A87
:100AD8003A503C263B503D223D500AE10A0E3C5C10
:100AE800D8A079EF05F07CEF05F0010E7DEF05F059
:100AF800000E00018C6F8D6B8C518D11D8A487EF7F
:100B080005F089EF05F054EF05F07EC0D9FF7FC0EE
:100B1800DAFFDECFF6FFDDCFF7FFF86A0800F55001
:100B2800630AD8A49AEF05F09CEF05F0C3EF05F02F
:100B38007EC0D9FF7FC0DAFFDE2A000EDD2280C02A
:100B4800D9FF81C0DAFFDFCF3AF0020EDE26DFCF11
:100B58003BF0000EDD223AC0D9FF3BC0DAFFDF5080
:100B6800966F7CC01DF07DC01EF096C01FF095ECFE
:100B78000FF01DC07CF01EC07DF046EF07F07EC070
:100B8800D9FF7FC0DAFFDECFF6FFDDCFF7FFF86AC7
:100B98000800F550640AD8B4D4EF05F0D6EF05F094
:100BA800E9EF05F07EC0D9FF7FC0DAFFDECFF6FFA0
:100BB800DDCFF7FFF86A0800F550690AD8A4E7EF17
:100BC80005F0E9EF05F029EF06F07EC0D9FF7FC0F8
:100BD800DAFFDE2A000EDD2280C0D9FF81C0DAFFED
:100BE800DFCF3AF0020EDE26DFCF3BF0000EDD222B
:100BF8003AC0D9FF3BC0DAFFDECF82F0DDCF83F009
:100C0800000E83BFFF0E846F856F866F876F886FB6
:100C1800896F7CC02FF07DC030F082C031F083C076
:100C280032F084C033F085C034F086C035F087C018
:100C380036F088C037F089C038F047EC07F02FC08D
:100C48007CF030C07DF046EF07F07EC0D9FF7FC052
:100C5800DAFFDECFF6FFDDCFF7FFF86A0800F550C0
:100C6800750AD8A43AEF06F03CEF06F07DEF06F0DF
:100C78007EC0D9FF7FC0DAFFDE2A000EDD2280C0E9
:100C8800D9FF81C0DAFFDFCF3AF0020EDE26DFCFD0
:100C98003BF0000EDD223AC0D9FF3BC0DAFFDECFC1
:100CA8003CF0DDCF3DF03CC08EF03DC08FF0906B46
:100CB800916B926B936B946B956B7CC02FF07DC09E
:100CC80030F08EC031F08FC032F090C033F091C058
:100CD80034F092C035F093C036F094C037F095C028
:100CE80038F025EC0AF02FC07CF030C07DF046EFDC
:100CF80007F07EC0D9FF7FC0DAFFDECFF6FFDDCF79
:100D0800F7FFF86A0800F550780AD8B48EEF06F0B5
:100D180090EF06F0A3EF06F07EC0D9FF7FC0DAFFA0
:100D2800DECFF6FFDDCFF7FFF86A0800F550580A66
:100D3800D8A4A1EF06F0A3EF06F0F2EF06F07EC00C
:100D4800D9FF7FC0DAFFDECFF6FFDDCFF7FFF86A05
:100D58000800F5CF96F07EC0D9FF7FC0DAFFDE2A03
:100D6800000EDD2280C0D9FF81C0DAFFDFCF3AF064
:100D7800020EDE26DFCF3BF0000EDD223AC0D9FF9F
:100D88003BC0DAFFDECF3CF0DDCF3DF03CC08EF05B
:100D98003DC08FF0906B916B926B936B946B956BDE
:100DA8007CC02FF07DC030F08EC031F08FC032F0A3
:100DB80090C033F091C034F092C035F093C036F053
:100DC80094C037F095C038F096C039F0B8EC08F008
:100DD8002FC07CF030C07DF046EF07F07EC0D9FF11
:100DE8007FC0DAFFDECFF6FFDDCFF7FFF86A080035
:100DF800F550250AD8A403EF07F005EF07F01DEF1B
:100E080007F07EC0D9FF7FC0DAFFDE2A000EDD22A0
:100E1800000E156E250E146E7CC016F07DC017F0FE
:100E28002AEC12F0000E00017D6F010E7C6F46EF78
:100E380007F07EC0D9FF7FC0DAFFDE2A000EDD2270
:100E4800000E7D6F000E7C6F46EF07F07EC0D9FF65
:100E58007FC0DAFFDECFF6FFDDCFF7FFF86A0800C4
:100E6800F550146E156A7CC016F07DC017F02AEC98
:100E780012F07EC0D9FF7FC0DAFFDE2A000EDD2225
:100E880016EF07F0120031C070F032C071F033C0B5
:100E980072F034C073F035C074F036C075F037C0E6
:100EA80076F038C077F0000177BF5DEF07F060EFAC
:100EB80007F0010E61EF07F0000E6E6F6F6B6E5159
:100EC8006F11D8B46AEF07F06CEF07F07CEF07F00A
:100ED800771F761F751F741F731F721F711F706D28
:100EE800000E7123722373237423752376237723CB
:100EF80041BE81EF07F083EF07F084EF07F04292DD
:100F080041BE91EF07F0415006E14004D8B08FEFA1
:100F180007F091EF07F097EF07F0000E6B6F010EE7
:100F28006A6F9BEF07F040C06AF041C06BF03EC0AB
:100F38006CF03FC06DF06E516F11D8A4A6EF07F0AA
:100F4800A8EF07F0AFEF07F042A4ADEF07F0AFEF5F
:100F580007F0B2EF07F06C07D8A06D07000E796FA5
:100F68001F0E786F000EF26F37EF08F07807D8A0E1
:100F78007907D30E7825D96E000E7921DA6E70C004
:100F880012F071C013F072C014F073C015F074C081
:100F980016F075C017F076C018F077C019F00A0E71
:100FA8001A6E000E1B6E000E1C6E000E1D6E000EDB
:100FB8001E6E000E1F6E000E206E000E216E6BEC72
:100FC8000EF012C060F013C061F014C062F015C0DA
:100FD80063F016C064F017C065F018C066F019C059
:100FE80067F060C024F062C025F08FEC13F0245045
:100FF800300FDF6E00016A07D8A06B076C07D8A016
:101008006D0770C012F071C013F072C014F073C095
:1010180015F074C016F075C017F076C018F077C0D8
:1010280019F00A0E1A6E000E1B6E000E1C6E000ED2
:101038001D6E000E1E6E000E1F6E000E206E000E3E
:10104800216EEBEC0CF012C070F013C071F014C0FC
:1010580072F015C073F016C074F017C075F018C0A0
:1010680076F019C077F0000179BF43EF08F07951A5
:1010780008E17805D8A043EF08F045EF08F075EFD0
:1010880008F0705171117211731174117511761184
:101098007711D8A452EF08F054EF08F0BAEF07F030
:1010A8006BBF61EF08F06B5106E16A05D8B05FEFDE
:1010B80008F061EF08F0BAEF07F06DBF6CEF08F0C9
:1010C8006D5108E16C05D8A06CEF08F06EEF08F0E0
:1010D80075EF08F042B273EF08F075EF08F0BAEF59
:1010E80007F06E516F11D8A47CEF08F07EEF08F07E
:1010F80085EF08F042A483EF08F085EF08F0A3EF2E
:1011080008F07807D8A079076E516F11D8A48FEF2F
:1011180008F091EF08F097EF08F0000E696F2B0EBA
:10112800686F9BEF08F0000E696F2D0E686FD30E85
:101138007825D96E000E7921DA6E68C0DFFF2FC0DE
:1011480024F030C025F0D30E7825266E000E7921C4
:10115800276E6CC028F06DC029F0CEEC10F024C0CA
:101168002FF025C030F0120041BEBDEF08F0BFEFF0
:1011780008F0C0EF08F0429241BECDEF08F04150B0
:1011880006E14004D8B0CBEF08F0CDEF08F0D4EF7B
:1011980008F0000E00016D6F010E6C6FD8EF08F0BB
:1011A80040C06CF041C06DF03EC06EF03FC06FF0C3
:1011B80042A8E1EF08F0E3EF08F0E8EF08F00001DB
:1011C800FE0E6E27FF0E6F2331C070F032C071F033
:1011D80033C072F034C073F035C074F036C075F0A7
:1011E80037C076F038C077F0000E0001796F1F0E17
:1011F800786F000EF26FB5EF09F07807D8A079077D
:101208000F0E70157A6F7B6B7BBF14EF09F07B5163
:1012180009E10A0E7A5DD8A014EF09F016EF09F07B
:101228001EEF09F0570E7A257A6F000E7B217B6F2F
:1012380024EF09F0300E7A257A6F000E7B217B6F40
:10124800BF0E606FFF0E616F3950626F636B605144
:1012580062276151632363510AE11A0E625DD8A0C7
:1012680038EF09F03BEF09F0010E3CEF09F0000EF2
:10127800686F696B68516911D8B445EF09F047EF99
:1012880009F077EF09F09F0E606FFF0E616F200E77
:101298007A11626F000E7B11636F60516227615192
:1012A800632363510AE11A0E625DD8A05EEF09F06C
:1012B80061EF09F0010E62EF09F0000E6A6F6B6BC7
:1012C8006A516B11D8B46BEF09F06DEF09F077EF45
:1012D80009F07AC018F07BC019F0EEEC12F018C0D3
:1012E8007AF019C07BF0D30E00017825D96E000E74
:1012F8007921DA6E7AC0DFFF6C07D8A06D076E0718
:10130800D8A06F0770C060F071C061F072C062F061
:1013180073C063F074C064F075C065F076C066F0A1
:1013280077C067F0050EA2EF09F0D89067336633EF
:10133800653364336333623361336033E82E99EF86
:1013480009F060C070F061C071F062C072F063C0F3
:1013580073F064C074F065C075F066C076F067C05D
:1013680077F079BFC1EF09F0795109E1020E785D94
:10137800D8A0C1EF09F0C3EF09F0F3EF09F07051FD
:101388007111721173117411751176117711D8A436
:10139800D0EF09F0D2EF09F001EF09F06DBFDFEFF0
:1013A80009F06D5106E16C05D8B0DDEF09F0DFEF0B
:1013B80009F001EF09F06FBFEAEF09F06F5108E19A
:1013C8006E05D8A0EAEF09F0ECEF09F0F3EF09F0A9
:1013D80042B2F1EF09F0F3EF09F001EF09F042A88A
:1013E800F8EF09F0FAEF09F010EF0AF07807D8A043
:1013F8007907D30E7825D96E000E7921DA6E39C0B7
:10140800DFFF7807D8A07907D30E7825D96E000EAC
:101418007921DA6E300EDF6E2FC024F030C025F04F
:10142800D30E7825266E000E7921276E6EC028F01F
:101438006FC029F0CEEC10F024C02FF025C030F09A
:10144800120041BE2AEF0AF02CEF0AF02DEF0AF045
:10145800429241BE3AEF0AF0415006E14004D8B04A
:1014680038EF0AF03AEF0AF041EF0AF0000E0001F7
:10147800696F010E686F45EF0AF040C068F041C01F
:1014880069F03EC06AF03FC06BF031C06CF032C00A
:101498006DF033C06EF034C06FF035C070F036C0F8
:1014A80071F037C072F038C073F0000E0001756F2C
:1014B8001F0E746F000EF26FD9EF0AF07407D8A0F0
:1014C8007507D30E7425D96E000E7521DA6E6CC0BF
:1014D80012F06DC013F06EC014F06FC015F070C03C
:1014E80016F071C017F072C018F073C019F00A0E28
:1014F8001A6E000E1B6E000E1C6E000E1D6E000E86
:101508001E6E000E1F6E000E206E000E216EFFEC88
:101518000FF012C060F013C061F014C062F015C083
:1015280063F016C064F017C065F018C066F019C003
:1015380067F000016051300FDF6E6807D8A06907B7
:101548006A07D8A06B076CC012F06DC013F06EC0AC
:1015580014F06FC015F070C016F071C017F072C0AB
:1015680018F073C019F00A0E1A6E000E1B6E000EEA
:101578001C6E000E1D6E000E1E6E000E1F6E000EFD
:10158800206E000E216E1DEC0FF012C06CF013C01F
:101598006DF014C06EF015C06FF016C070F017C073
:1015A80071F018C072F019C073F000017451751110
:1015B800D8B4E1EF0AF0E3EF0AF013EF0BF06C5147
:1015C8006D116E116F117011711172117311D8A410
:1015D800F0EF0AF0F2EF0AF062EF0AF069BFFFEFEE
:1015E8000AF0695106E16805D8B0FDEF0AF0FFEF8F
:1015F8000AF062EF0AF06BBF0AEF0BF06B5108E1DB
:101608006A05D8A00AEF0BF00CEF0BF013EF0BF004
:1016180042B211EF0BF013EF0BF062EF0AF02FC09C
:1016280024F030C025F0D30E7425266E000E7521E7
:10163800276E6AC028F06BC029F0CEEC10F024C0E9
:101648002FF025C030F01200F30E00019F6FFF0E3F
:10165800A06FC4EC14F0000E0001B26F000EB16F61
:10166800B151B211D8B43BEF0BF03DEF0BF052EF94
:101678000BF0070EB115AB6F000EB215AC6FAB5186
:10168800AC11D8A44AEF0BF04CEF0BF052EF0BF073
:10169800900E9F6FFF0EA06FC4EC14F00001B151C3
:1016A800B211D8B45AEF0BF05CEF0BF0B5EF0BF0BA
:1016B8000F0EB115AB6F000EB215AC6FAB51AC117C
:1016C800D8A469EF0BF06BEF0BF0B5EF0BF08F0EB2
:1016D8009F6FFF0EA06FC4EC14F0F00E0001B1254F
:1016E800AD6FFF0EB221AE6FA4EF0BF0AD51A9257F
:1016F800D96EAE51AA21DA6E200EDF6086EF0BF0AC
:1017080088EF0BF090EF0BF0FA0E9F6FFF0EA06FB3
:10171800C4EC14F0A1EF0BF0F70E9F6FFF0EA06F53
:10172800AD51A925D96EAE51AA21DA6EDF50AB6F43
:10173800AB51A16FA26BC4EC14F00001AD4BAE2B02
:10174800B151AD5DB251AE59D8A0ADEF0BF0AFEFCE
:101758000BF07AEF0BF0AE0E9F6FFF0EA06FC4EC8C
:1017680014F0E30E00019F6FFF0EA06FB151A92581
:10177800D96EB251AA21DA6EDF50AB6FAB51A16FAF
:10178800A26BC4EC14F00001B14BB22B020EB25D97
:10179800D8A0D1EF0BF0D3EF0BF034EF0BF08E0E97
:1017A8009F6FFF0EA06FC4EC14F0F00E0001B1257E
:1017B800AF6FFF0EB221B06F0CEF0CF0AF51A9253F
:1017C800D96EB051AA21DA6E200EDF60EEEF0BF071
:1017D800F0EF0BF0F8EF0BF0FA0E9F6FFF0EA06F13
:1017E800C4EC14F009EF0CF0F70E9F6FFF0EA06F1A
:1017F800AF51A925D96EB051AA21DA6EDF50AB6F6F
:10180800AB51A16FA26BC4EC14F00001AF4BB02B2D
:10181800B151AF5DB251B059D8A015EF0CF017EF28
:101828000CF0E2EF0BF0AE0E9F6FFF0EA06FC4EC52
:1018380014F01200000E276E000E266E000E206EA9
:10184800000E1F6E2AEF0CF0194A1A2A010E256E97
:1018580019C0F6FF1AC0F7FFF86A0800F550200A09
:10186800D8B439EF0CF03BEF0CF059EF0CF0F70E51
:101878001B6EFF0E1C6E19C0F6FF1AC0F7FFF86A40
:101888000800F5501D6E1E6A1B501D261C501E2296
:101898001E5009E1050E1D5CD8A055EF0CF057EF5E
:1018A8000CF059EF0CF0000E256E25C021F0226ACD
:1018B80021502210D8A463EF0CF065EF0CF028EF4C
:1018C8000CF06FEF0CF0000E206E010E1F6E194A1F
:1018D8001A2AA6EF0CF019C0F6FF1AC0F7FFF86A2B
:1018E8000800F5501B6E1C6A1C50000AD8B47FEF24
:1018F8000CF0A6EF0CF01B502B0AD8B46BEF0CF0D1
:10190800060AD8B467EF0CF0A6EF0CF026C012F068
:1019180027C013F0000E156E0A0E146EECEC14F0CE
:1019280019C0F6FF1AC0F7FFF86A0800F550125EF2
:10193800000E135A300E1224266E000E1320276E46
:101948006BEF0CF0D00E1B6EFF0E1C6E19C0F6FF6D
:101958001AC0F7FFF86A0800F5501D6E1E6A1B5082
:101968001D261C501E221E500AE10A0E1D5CD8A01E
:10197800C0EF0CF0C3EF0CF0010EC4EF0CF0000E3A
:10198800236E246A23502410D8A4CDEF0CF0CFEF97
:101998000CF08AEF0CF01F502010D8A4D6EF0CF0F2
:1019A800D8EF0CF0E6EF0CF026C01BF027C01CF0B7
:1019B8001B1E1C1E1B4A1C2A1BC019F01CC01AF037
:1019C800EAEF0CF026C019F027C01AF01200000E3A
:1019D800236E21BEF4EF0CF0F2EF0CF006EF0DF0E1
:1019E800211E201E1F1E1E1E1D1E1C1E1B1E1A6CC5
:1019F800000E1B221C221D221E221F222022212211
:101A0800010E236E19BE0DEF0DF00BEF0DF01FEF59
:101A18000DF0191E181E171E161E151E141E131E55
:101A2800126C000E132214221522162217221822D5
:101A38001922010E231A20EE24F0070EDE6AE806AA
:101A4800FDE21A501B101C101D101E101F10201034
:101A58002110D8B432EF0DF034EF0DF086EF0DF011
:101A6800010E226E42EF0DF0D8901A361B361C3646
:101A78001D361E361F3620362136222A21AE47EF64
:101A88000DF049EF0DF038EF0DF0D89024362536DB
:101A980026362736283629362A362B361A50125C2F
:101AA8001B5013581C5014581D5015581E501658CA
:101AB8001F5017582050185821501958D8A067EFB0
:101AC8000DF069EF0DF07AEF0DF01A50125E1B5011
:101AD800135A1C50145A1D50155A1E50165A1F508E
:101AE800175A2050185A2150195A2480D890213258
:101AF80020321F321E321D321C321B321A32222E65
:101B080049EF0DF02350D8B48CEF0DF08EEF0DF0A7
:101B18009EEF0DF02B1E2A1E291E281E271E261E8C
:101B2800251E246C000E252226222722282229225F
:101B38002A222B2224C012F025C013F026C014F04C
:101B480027C015F028C016F029C017F02AC018F0D1
:101B58002BC019F012000001AB6F000E0001AA6F34
:101B6800000EA96FFF0E2BEC15F00001A94BAA2B54
:101B7800AABFC8EF0DF0AA5109E10A0EA95DD8A0C5
:101B8800C8EF0DF0CAEF0DF0B6EF0DF08A98FF0E12
:101B98002BEC15F0400E2BEC15F0000E2BEC15F08D
:101BA800000E2BEC15F0000E2BEC15F0000E2BECB4
:101BB80015F0950E2BEC15F0FF0E2BEC15F0FF0E23
:101BC8002BEC15F00001AC6F8A88AB05D8A4EFEFB9
:101BD8000DF0F1EF0DF0FAEF0DF07F0E9F6FFE0E96
:101BE800A06FACC0A1F0A26BC4EC14F08A98FF0EF1
:101BF8002BEC15F0410E2BEC15F0000E2BEC15F02C
:101C0800000E2BEC15F0000E2BEC15F0000E2BEC53
:101C180015F0FF0E2BEC15F0FF0E2BEC15F0FF0E58
:101C28002BEC15F00001AC6F8A88AC51D8A41FEFDB
:101C38000EF021EF0EF0FAEF0DF0AB05D8A427EF68
:101C48000EF029EF0EF032EF0EF09A0E9F6FFE0E97
:101C5800A06FACC0A1F0A26BC4EC14F08A98FF0E80
:101C68002BEC15F0500E2BEC15F0000E2BEC15F0AC
:101C7800000E2BEC15F0020E2BEC15F0000E2BECE1
:101C880015F0FF0E2BEC15F0FF0E2BEC15F0FF0EE8
:101C98002BEC15F00001AC6F8A88AC29D8B457EF4B
:101CA8000EF059EF0EF032EF0EF0AB05D8A45FEF4F
:101CB8000EF061EF0EF06AEF0EF0470E9F6FFE0E0A
:101CC800A06FACC0A1F0A26BC4EC14F01200000E1F
:101CD800236E19BE74EF0EF072EF0EF086EF0EF061
:101CE800191E181E171E161E151E141E131E126C02
:101CF800000E132214221522162217221822192246
:101D0800010E236E21BE8DEF0EF08BEF0EF09DEFCE
:101D18000EF0211E201E1F1E1E1E1D1E1C1E1B1E19
:101D28001A6C000E1B221C221D221E221F2220229A
:101D380021221A501B101C101D101E101F102010DD
:101D48002110D8B4AAEF0EF0ACEF0EF0F4EF0EF0BD
:101D5800010E226EBAEF0EF0D8901A361B361C36DA
:101D68001D361E361F3620362136222A21AEBFEFF9
:101D78000EF0C1EF0EF0B0EF0EF01A50125C1B50CF
:101D880013581C5014581D5015581E5016581F50E3
:101D980017582050185821501958D8A0D6EF0EF0CF
:101DA800D8EF0EF0E8EF0EF01A50125E1B50135ADF
:101DB8001C50145A1D50155A1E50165A1F50175AA7
:101DC8002050185A2150195AD890213220321F32E7
:101DD8001E321D321C321B321A32222EC1EF0EF077
:101DE8002350D8B4FAEF0EF0FCEF0EF00CEF0FF022
:101DF800191E181E171E161E151E141E131E126CF1
:101E0800000E132214221522162217221822192234
:101E180012C012F013C013F014C014F015C015F05E
:101E280016C016F017C017F018C018F019C019F02E
:101E3800120020EE22F0070EDE6AE806FDE21A50D4
:101E48001B101C101D101E101F1020102110D8B4BC
:101E580030EF0FF032EF0FF084EF0FF0010E2A6E23
:101E680040EF0FF0D8901A361B361C361D361E363A
:101E78001F36203621362A2A21AE45EF0FF047EFCC
:101E88000FF036EF0FF0D890223623362436253659
:101E980026362736283629361A50125C1B50135816
:101EA8001C5014581D5015581E5016581F501758BE
:101EB8002050185821501958D8A065EF0FF067EF37
:101EC8000FF078EF0FF01A50125E1B50135A1C5087
:101ED800145A1D50155A1E50165A1F50175A205082
:101EE800185A2150195A2280D890213220321F3294
:101EF8001E321D321C321B321A322A2E47EF0FF0C7
:101F080022C012F023C013F024C014F025C015F02D
:101F180026C016F027C017F028C018F029C019F0FD
:101F280012003E503F10D8A49CEF0FF09EEF0FF028
:101F3800A4EF0FF03EC023F03FC024F0AAEF0FF04B
:101F4800FF0E3E24236EFF0E3F20246E42A0AFEF0B
:101F58000FF0B1EF0FF0BAEF0FF01FC014F0156AD1
:101F68001DC016F01EC017F02AEC12F024BEBFEFF9
:101F78000FF0C1EF0FF0C3EF0FF0C7EF0FF0000E37
:101F8800246E000E236E000E226E000E216ED9EF15
:101F98000FF0000E156E200E146E1DC016F01EC038
:101FA80017F02AEC12F0214A222A2350215C2250F1
:101FB800800A206E2450800A2058D8A0E6EF0FF03F
:101FC800E8EF0FF0CDEF0FF042B0EDEF0FF0EFEFCD
:101FD8000FF0F8EF0FF01FC014F0156A1DC016F0CF
:101FE8001EC017F02AEC12F0010E21241D6E000EFF
:101FF80022201E6E12001A501B101C101D101E10DD
:102008001F1020102110D8B40CEF10F00EEF10F0B4
:1020180056EF10F0010E226E1CEF10F0D8901A3611
:102028001B361C361D361E361F3620362136222A10
:1020380021AE21EF10F023EF10F012EF10F01A503C
:10204800125C1B5013581C5014581D5015581E5024
:1020580016581F5017582050185821501958D8A0F2
:1020680038EF10F03AEF10F04AEF10F01A50125E05
:102078001B50135A1C50145A1D50155A1E50165AEC
:102088001F50175A2050185A2150195AD8902132E7
:1020980020321F321E321D321C321B321A32222EBF
:1020A80023EF10F012C012F013C013F014C014F094
:1020B80015C015F016C016F017C017F018C018F0A4
:1020C80019C019F01200C4CF0DF0C282A8EF10F0A9
:1020D800F50E4424D96E020E4520DA6E0DC0DFFFDE
:1020E800444A452A020E455CD8A07DEF10F07FEFE8
:1020F80010F0C1EF10F0010E0001D16F000E456E17
:10210800000E446E000E4C6EC1EF10F0F50E442424
:10211800D96E000E4520DA6E0DC0DFFF444A452A0D
:10212800020E455CD8A09BEF10F09DEF10F0C1EFB8
:1021380010F0010E0001D06F000E456E000E446EC7
:10214800000E4C6EC1EF10F04C500B6E0C6A0C5028
:10215800000AD8B4B2EF10F0C1EF10F00B50000A2B
:10216800D8B4C1EF10F0010AD8B46CEF10F0030A2C
:10217800D8B48AEF10F0C1EF10F00EEC15F00001A2
:10218800F351015C096EF45102580A6E7FEC15F0A8
:10219800F294120042A0D3EF10F0D5EF10F0DFEF69
:1021A80010F026C01DF027C01EF024C01FF025C067
:1021B80020F06DEC13F029BEE4EF10F0E6EF10F01C
:1021C800ECEF10F028C02DF029C02EF0F0EF10F041
:1021D800000E2E6E000E2D6E000E2C6E000E2B6E55
:1021E80002EF11F0000E156E200E146E24C016F0CA
:1021F80025C017F02AEC12F02B4A2C2A2D502B5C04
:102208002C50800A2A6E2E50800A2A58D8A00FEF28
:1022180011F011EF11F0F6EF10F042B016EF11F0D7
:1022280018EF11F022EF11F026C01DF027C01EF0A4
:1022380024C01FF025C020F06DEC13F026C012F06A
:1022480027C013F077EC14F02D501224246E2E5072
:102258001320256E1200000E176E13BE38EF11F012
:1022680036EF11F03EEF11F0126C131ED8B0132A9E
:10227800010E176E15BE45EF11F043EF11F049EF4F
:1022880011F0146C151ED8B0152A14501510D8B4B6
:1022980050EF11F052EF11F076EF11F0010E166EBB
:1022A8005AEF11F0D89014361536162A15AE5FEF8E
:1022B80011F061EF11F056EF11F01450125C155047
:1022C8001358D8A06AEF11F06CEF11F070EF11F00D
:1022D8001450125E1550135AD89015321432162E17
:1022E80061EF11F01750D8B47CEF11F07EEF11F0C8
:1022F80082EF11F0126C131ED8B0132A12C012F01C
:1023080013C013F01200136E6CBA8DEF11F08FEF3B
:1023180011F0DCEF11F01350040D010EF326000E3E
:10232800F4226F0EF324F66EF90EF420F76EF86AB5
:10233800000EF8220800F5CF6DFF1350040D6F0E44
:10234800F324F66EF90EF420F76EF86A000EF82200
:102358000800F5CF6CFF000E6B6E1350040D020ED3
:10236800F326000EF4226F0EF324F66EF90EF42015
:10237800F76EF86A000EF8220800F5CF6EFF1350CA
:10238800040D030EF326000EF4226F0EF324F66EEE
:10239800F90EF420F76EF86A000EF8220800F5CF5F
:1023A80012F0124693501218FD0B1218936E6C8A95
:1023B80012008A98FF0E2BEC15F0510E2BEC15F03D
:1023C80016502BEC15F015502BEC15F014502BEC87
:1023D80015F013502BEC15F0FF0E2BEC15F0FF0E3B
:1023E8002BEC15F0FF0AD8B4FCEF11F0FEEF11F05A
:1023F800F3EF11F0FF0E2BEC15F0FF0AD8B407EF3E
:1024080012F009EF12F0FEEF11F0000E1A6E000E36
:10241800196E19501724D96E1A501820DA6EFF0E4B
:102428002BEC15F0DF6E194A1A2A020E1A5CD8A096
:1024380020EF12F022EF12F00DEF12F0FF0E2BEC4E
:1024480015F0FF0E2BEC15F08A88120016501710A5
:10245800D8B431EF12F033EF12F03CEF12F016500F
:102468001710D8A43AEF12F03CEF12F041EF12F037
:1024780014507AEC15F074EF12F020EE04F01650B8
:10248800D9261750DA22DE50DE10D8B44EEF12F0FB
:1024980050EF12F06BEF12F020EE04F01650D92630
:1024A8001750DA2210EE02F01650E1261750E222F9
:1024B800DE50E65CE650800A1C6EDE50800A1C582E
:1024C800D8B069EF12F06BEF12F074EF12F020EE53
:1024D80002F01650D9261750DA22DE2A000EDD2225
:1024E80012008A98FF0E2BEC15F0580E2BEC15F005
:1024F80016502BEC15F015502BEC15F014502BEC56
:1025080015F013502BEC15F0FF0E2BEC15F0FF0E09
:102518002BEC15F0FF0AD8B494EF12F096EF12F0F6
:102528008BEF12F0FF0E2BEC15F0FF0E2BEC15F0D5
:10253800FF0E2BEC15F0FE0E2BEC15F0000E1A6EAC
:10254800000E196E19501724D96E1A501820DA6E19
:10255800DF502BEC15F0194A1A2A020E1A5CD8A083
:10256800B8EF12F0BAEF12F0A6EF12F08A88120054
:1025780099C09DF09AC09EF0000E0001C96F000E30
:10258800C86FDAEF12F097C07CF098C07DF09D0E0E
:102598007E6F000E7F6F9BC080F09CC081F085EC41
:1025A80004F000017C51C8277D51C9239DC0F6FF66
:1025B8009EC0F7FFF86A0800F5500009D8A4E7EFB5
:1025C80012F0E9EF12F0C7EF12F0C8C097F0C9C0D7
:1025D80098F012009F0E1A6EFF0E1B6E18C01CF0AA
:1025E80019C01DF01A501C261B501D221D500AE14F
:1025F8001A0E1C5CD8A003EF13F006EF13F0010EBF
:1026080007EF13F0000E1E6E1F6A1E501F10D8B47D
:1026180010EF13F012EF13F018EF13F05F0E181409
:10262800186E196A1CEF13F018C018F019C019F0C9
:102638001200010E186E200E12181310D8B427EFCE
:1026480013F029EF13F042EF13F0F70E146EFF0E9C
:10265800156E12C016F013C017F014501626155038
:102668001722175009E1050E165CD8A03EEF13F0AB
:1026780040EF13F042EF13F0000E186E18C012F07E
:10268800136A1200100EF66E2B0EF76E000EF86E1F
:102698000900F5CFF3F00900F5CFF4F000EEF5F0FE
:1026A80014EE00F0EE6AE550E150FCE1E250FAE188
:1026B80000EEC8F02B0EEE6AE806FDE100EE3EF0F3
:1026C800100EEE6AE806FDE14E904E92000129EFE9
:1026D80000F0000E236E000E226E7EEF13F021C074
:1026E80014F0156A1FC016F020C017F02AEC12F07B
:1026F800224A232A22501D24D96E23501E20DA6E26
:10270800DF50216E2150D8A48CEF13F08EEF13F018
:1027180073EF13F0120025BE9CEF13F0255006E16D
:102728002404D8B09AEF13F09CEF13F0AAEF13F03B
:1027380024C026F025C027F0261E271E264A272A51
:1027480026C024F027C025F0AEEF13F024C024F0F3
:1027580025C025F01200080EB86E900EAB6E240E40
:10276800AC6E820EAF6E060EB06E000E126E000ECC
:10277800136E70EC15F0000E126E000E136E6BECFB
:1027880015F0000E126E000E136E75EC15F0000EAB
:102798004D6E12009F0E146EFF0E156E200E121055
:1027A800166E000E1310176E1450162615501722A9
:1027B80017500AE11A0E165CD8A0E5EF13F0E8EFFF
:1027C80013F0010EE9EF13F0000E126E136A1200F7
:1027D8008A980D0E2BEC15F0136E8A881328D8A44E
:1027E800F8EF13F0FAEF13F0FDEF13F0FF0E07EF19
:1027F80014F0FF0E2BEC15F0FF0E2BEC15F0FF0E6E
:102808002BEC15F0135012009F0E146EFF0E156E70
:1028180012C016F013C017F01450162615501722C0
:1028280017500AE11A0E165CD8A01DEF14F020EF1D
:1028380014F0010E21EF14F0000E126E136A12004C
:10284800BF0E146EFF0E156E12C016F013C017F0EF
:10285800145016261550172217500AE11A0E165C46
:10286800D8A039EF14F03CEF14F0010E3DEF14F04E
:10287800000E126E136A1200D00E146EFF0E156E43
:1028880012C016F013C017F0145016261550172250
:1028980017500AE10A0E165CD8A055EF14F058EF4D
:1028A80014F0010E59EF14F0000E126E136A1200A4
:1028B800D59C000ED76E000ED66ED650D7CF14F02A
:1028C800156A14C015F0146A1410486E1550496E34
:1028D800F294F28A120E126E2B0E136E66EC15F03D
:1028E8009F0ED56E120012C014F013C015F07FEFC2
:1028F80014F0124A132A12C0D9FF13C0DAFFDF50AE
:10290800D8A489EF14F08BEF14F07DEF14F0145075
:10291800125C126E15501358136E1200F29449503F
:10292800D76E48C0D6FF4A504B10D8B49EEF14F06B
:10293800A0EF14F0ACEF14F002D8ACEF14F00500DF
:10294800FA6E4A50FD6E4B50FE6EFF6AFA50120046
:102958001200000E896E000E8A6E000E8B6EBF0E7E
:10296800926EE50E936E8F0E946E0C0E0F013A6FF9
:10297800310E396F2F0E386F000E616EF18E120016
:10298800A10E0001A76F000EA86F000E976F000E32
:10299800986F9FC099F0A0C09AF0A70E9B6F000E89
:1029A8009C6FBCEC12F012009EAADDEF14F0DFEF72
:1029B80014F0D8EF14F0000E4D6EABA2E6EF14F051
:1029C800E8EF14F0EAEF14F0AB98AB88AE501200C1
:1029D80012501402F3CF16F0F4CF17F0125015026C
:1029E800F350172613501402F350172616C012F08E
:1029F80017C013F0120084EC15F058EC15F0ADEC8C
:102A080014F01DEC15F05CEC14F038EC15F0AFEC9C
:102A180013F01200D6CF07F0D7CF08F00850036E96
:102A28000750056E03C006F005C001F006C002F0AD
:102A38001200700ED36E040ED26E400E9B6ED2AE94
:102A480028EF15F02AEF15F023EF15F01200126E9B
:102A580012C06FFFA4AE33EF15F035EF15F02EEF6F
:102A680015F0A49E6F501200000EC16E260EC06EA7
:102A7800000EC36E000EC46E110EC26E1200126EEE
:102A88009EA849EF15F04BEF15F044EF15F012C072
:102A9800ADFF12009EBA53EF15F056EF15F0010E78
:102AA80057EF15F0000E1200400E6D6E010E6C6EA1
:102AB800010E6E6E93926C9A12001350D76E12C06C
:102AC800D6FF120012C04AF013C04BF0120012C019
:102AD800CEF013C0CFF0120012C046F013C047F07A
:102AE800120012C0CCF013C0CDF01200136E1350B8
:102AF80043EC15F012000A50D76E09C0D6FF120039
:0C2B0800D09E12006C9A120040061200D1
:10F9540000809FBBD5E9F8FFFFF8E9D5BB9F806124
:10F96400452B1708010108172B4561014001000DC3
:10F974000A596F75206D6179207465726D696E61C5
:10F9840074652073706F6F6C696E67206174206199
:10F994006E7974696D6520776974682061206B6580
:10F9A4007970726573732E0D0A546F2073706F6FC4
:10F9B4006C207465726D696E616C20636F6E746522
:10F9C4006E747320696E746F20612066696C6520A3
:10F9D400666F6C6C6F7720746865736520696E73ED
:10F9E4007472756374696F6E733A0D0A0D0A526905
:10F9F400676874206D6F75736520636C69636B2031
:10FA04006F6E20746865207570706572206C656611
:10FA140074206F662074686520507554545920779B
:10FA2400696E646F770D0A53656C6563743A2020C0
:10FA34002020204368616E67652073657474696E65
:10FA440067732E2E2E0D0A53656C6563743A20205D
:10FA54002020204C6F6767696E670D0A53656C65DB
:10FA640063743A202020202053657373696F6E20DD
:10FA74006C6F6767696E673A20416C6C20736573BD
:10FA840073696F6E206F75747075740D0A4C6F67AF
:10FA94002066696C65206E616D653A202042726F44
:10FAA40077736520616E642070726F766964652077
:10FAB40061202E63737620657874656E73696F6E4A
:10FAC40020746F20796F75722066696C65206E6191
:10FAD4006D650D0A53656C6563743A2020202020FF
:10FAE4004170706C790D0A507265737320616E7980
:10FAF400206B657920746F20737461727400537085
:10FB04006F6F6C656420353132206F7574206F66B9
:10FB1400207468652035313220626C6F636B732EFC
:10FB2400200D0A546F20636C6F7365207468652020
:10FB340066696C6520666F6C6C6F7720746865739A
:10FB44006520696E737472756374696F6E733A209D
:10FB54000D0A200D0A5269676874206D6F7573650C
:10FB640020636C69636B206F6E2074686520757008
:10FB7400706572206C656674206F662074686520F9
:10FB840050755454592077696E646F77200D0A5369
:10FB9400656C6563743A20202020204368616E6799
:10FBA400652073657474696E67732E2E2E200D0A9A
:10FBB40053656C6563743A20202020204C6F67677E
:10FBC400696E67200D0A53656C6563743A202020C2
:10FBD400202053657373696F6E20206C6F676769AB
:10FBE4006E673A204E6F6E65200D0A53656C65632F
:10FBF400743A20202020204170706C79005772697B
:10FC040074696E672073696E652077617665207408
:10FC14006F206D656D6F72792C20737461727469D5
:10FC24006E672077697468207468652063757272E2
:10FC3400656E7420616464726573732E20507265FE
:10FC4400737320616E79206B657920746F207374EF
:10FC54006F702E0D0A00507265737320616E7920E7
:10FC64006B657920746F207374617274207265639C
:10FC74006F7264696E6720617564696F20616E6478
:10FC840020707265737320616E79206B65792074BE
:10FC94006F2073746F70207265636F7264696E672E
:10FCA4000D0A00313A20777269746520612070650D
:10FCB40072666563742032362076616C75652073D4
:10FCC400696E65207761766520746F20746865209D
:10FCD400534420636172640D0A000D0A2D2D2D2DED
:10FCE4002D2D2D2D2D2D2D2D2D2D2D2D2D2D2D2D40
:10FCF4002D2D2D2D2D2D2D2D2D2D2D2D2D2D2D2D30
:10FD04002D2D2D2D2D2D2D2D2D2D2D2D2D0D0A008F
:10FD14002B2F2D3A20496E6372656173652F4465FC
:10FD2400637265617365207468652073616D706CBE
:10FD34006520726174652062792031302075730DFD
:10FD44000A00573A205772697465206D6963726FAF
:10FD540070686F6E65203D3E205344206361726479
:10FD640020617420313630302075730D0A00723AE8
:10FD74002072656164206120626C6F636B206F6622
:10FD84002025642062797465732066726F6D205338
:10FD94004420636172640D0A004E6F20636F6E66C7
:10FDA400696775726174696F6E206F662064657629
:10FDB400656C6F706D656E7420626F6172640D0A9C
:10FDC4003E2000612F412064656372656173652F75
:10FDD400696E637265617365207265616420616434
:10FDE40064726573730D0A00733A2073706F6F6CDD
:10FDF400206D656D6F727920746F20612063737656
:10FE04002066696C650D0A00556E646572666C6FD8
:10FE140077656420746F2068696768206164647220
:10FE24006573730D0A005468652073616D706C69A5
:10FE34006E6720726174652069732025752075735F
:10FE44000D0A00426C6F636B204C656E677468200A
:10FE5400526573706F6E73653A2025780D0A004FF2
:10FE6400766572666C6F77656420746F206C6F774B
:10FE740020616464726573730D0A00434D44302C31
:10FE840020526573657420526573706F6E73653AA2
:10FE94002025780D0A00434D44312C20496E6974A5
:10FEA40020526573706F6E73653A2025780D0A00D1
:10FEB400693A20496E697469616C697A65205344B2
:10FEC40020636172640D0A004D69632073616D7073
:10FED4006C696E6720636F6D706C6574650D0A00E4
:10FEE4007A3A20436C656172207468652074657287
:10FEF4006D696E616C0D0A005A3A2052657365741F
:10FF04002070726F636573736F720D0A00446563CA
:10FF140072656173656420616464726573730D0A4C
:10FF240000496E637265617365642061646472651F
:10FF340073730D0A00534420636172642061646426
:10FF4400726573733A202000534420636172642005
:10FF540074657374696E670D0A005265636F726429
:10FF6400696E67207374617274656400556E6B6E9C
:10FF74006F776E206B65792025630D0A00202020A1
:10FF840020416464726573733A2020202000577204
:10FF94006974652073746F707065640D0A0052652E
:10FFA400616420626C6F636B3A200D0A003F3A2053
:10FFB40068656C70206D656E750D0A00696E4C6124
:10FFC400622030390D0A004465762732310D0A006B
:10FFD4006F3A096F6B0D0A006F3A206B0D0A00250A
:10FFE400303278200025640D0A0025303478000D65
:0BFFF4000A0A002563002E003A0000FE
:020000040020DA
:08000000FFFFFFFFFFFFFFFF00
:020000040030CA
:0E000000FF281F3CFFBF85FF0FC00FE00F4021
:00000001FF
